:020000040000FA
:060000000A128A110C280F
:10000800FE00030EF2000A08F3000A128A11902E6D
:100018000A128A110F2883134030FD000730FE00B2
:100028009D30FF00203084000A128A15C4270A1266
:100038008A11DC01DD01DE01DF01E001E101E201FD
:10004800E301E401E501E601E701F601F701F80142
:10005800F90183010A128A1131280A128A11CA2663
:100068000A128A118316031388010A128A11842539
:100078000A128A110A128A15A1270A128A118312F2
:100088000313C201C20A01300A128A1130270A1268
:100098008A1131300A128A1156270A128A118312DC
:1000A8000313C201C20A02300A128A1130270A1247
:1000B8008A1120300A128A1156270A128A110A1246
:1000C8008A1576270A128A11D030F4000030F5001C
:1000D8000A128A11F5270A128A110030F400F50075
:1000E8000A128A11F5270A128A110030F400F50065
:1000F8000A128A11F5270A128A110030F400F50055
:100108000A128A11F5270A128A110130F400003008
:10011800F5000A128A11F5270A128A110030F40034
:10012800F5000A128A11F5270A128A110A30F4001A
:100138000030F5000A128A11F5270A128A110330D5
:10014800F4000030F5000A128A11F5270A128A1104
:100158001B30F4000030F5000A128A11F5270A1244
:100168008A110A128A157F270A128A11033083120C
:100178000313DB000830DA007630D900D90BC22827
:10018800DA0BC228DB0BC22800000A128A15762770
:100198000A128A11D030F4000030F5000A128A11D0
:1001A800F5270A128A110030F400F5000A128A11A4
:1001B800F5270A128A110A128A156D270A128A115E
:1001C800D130F4000030F5000A128A11F5270A121E
:1001D8008A110130F4000030F5000A128A11002754
:1001E8000A128A11750883120313E5007408E400E3
:1001F8000130F4000030F5000A128A1100270A12B3
:100208008A117508F7007408F6000130F400003010
:10021800F5000A128A1100270A128A11750883123A
:100228000313E3007408E2000130F4000030F50025
:100238000A128A1100270A128A110130F4000030CC
:10024800F5000A128A1100270A128A11750883120A
:100258000313E1007408E0000130F4000030F500F9
:100268000A128A1100270A128A11750883120313C9
:10027800DF007408DE000030F400F5000A128A116D
:1002880000270A128A11750883120313DD00740807
:10029800DC000A128A157F270A128A110A128A11AB
:1002A80011230A128A11033083120313DB0008306A
:1002B800DA007630D900D90B5F29DA0B5F29DB0B1E
:1002C8005F29000083120313C201C20A01300A1217
:1002D8008A1130270A128A1131300A128A115627D8
:1002E8000A128A1183120313C201C20A02300A12C7
:1002F8008A1130270A128A1120300A128A115627C9
:100308000A128A110B3083120313D9005908CC0042
:100318006508CE006408CD0067300A128A11AC2146
:100328000A128A1167300A128A117B270A128A1167
:100338000D300A128A1588270A128A110A300A1201
:100348008A1588270A128A11C9280A128A110C28C4
:1003580083120313D4004D30CF004F08D200FA2A7D
:10036800253058060319B929BA29C6295808CF00D3
:10037800540884004F08831380000130CF004F08D1
:10038800D407FA2AD3014C0884000A128A150020DF
:100398000A128A112E3A031DD229D3290A2A0130BA
:1003A800CF004F08CC07D701F92983120313570848
:1003B800CF004F08F4000A300A128A15E9270A12FA
:1003C8008A1183120313D0005008D7004C08840008
:1003D8000A128A1500200A128A11D03ECF004F084F
:1003E800D7070130CF004F08CC074C0884000A1209
:1003F8008A1500200A128A110A128A15AE270A12D3
:100408008A110318082A092AD9290B2AD701013089
:1004180083120313CC07FF304C0784000A128A1595
:1004280000200A128A11D800CF00D0015008003AE3
:1004380003191F2AFA2A4F08003A03190C2B643AA9
:1004480003192A2A0D3A03192A2AFA2A520884007B
:1004580083130008D500840A0008D6000230CF00B4
:100468004F08D207D61F392A3A2A432A0330CF0029
:100478004F08D304D509D609D50A0319D60A57084F
:10048800031D472A482A522A55085604031D4D2A97
:100498004E2A522A0130CF004F08D707D801D80A70
:1004A8005808CF004F07013E84000A128A15002021
:1004B8000A128A11D0000A128A1500200A128A111B
:1004C800D10051085602031D6B2A50085502031823
:1004D8006E2A6F2A702A7A2A0130CF004F08D8076F
:1004E80005305806031D792A7A2A542A5708CF005E
:1004F800D001CF1BD0035008803A803C031D862AC8
:100508004F0858020318892A8A2A8B2AA52A831297
:1005180003135708CF00D001CF1BD0035008803AEF
:10052800D10080305102031D9B2A58084F0203183E
:100538009E2A9F2AA52A831203135808CF004F0822
:10054800D70083120313530803390319AC2AAD2AC1
:10055800F12A2D30CF00540884004F0883138000FF
:100568000130CF004F08D407F12A0A30C700003005
:10057800C8005708CF004F07013E84000A128A15A9
:1005880000200A128A11C0000A128A1500200A12D5
:100598008A11C1005608C3005508C2000A128A1100
:1005A800D4250A128A11831203134108CA0040088D
:1005B800C9000A128A111A260A128A118312031311
:1005C8004708303ED0005008D8005808CF005408DB
:1005D80084004F0883138000B42AFF30CF004F08EF
:1005E800D707570A031DF92AFA2AB92A0130CC0776
:1005F800FF304C0784000A128A1500200A128A115B
:10060800CF004F08D8005808031D0B2B0C2BB4291A
:1006180054088400831380010800831203136408BC
:100628000A128A11D9270A128A1183120313C800E1
:10063800C9014808E4004908E50076080A128A1149
:10064800D9270A128A1183120313C800C90148085E
:10065800F6004908F70062080A128A11D9270A1217
:100668008A1183120313C800C9014808E200490827
:10067800E30060080A128A11D9270A128A11831224
:100688000313C800C9014808E0004908E1005E08F2
:100698000A128A11D9270A128A1183120313C80071
:1006A800C9014808DE004908DF005C080A128A11FF
:1006B800D9270A128A1183120313C800C9014808EE
:1006C800DC004908DD000A30C0000030C1006308C2
:1006D800C3006208C2000A128A1158240A128A1139
:1006E800831203134008303EC8004808B7000A3098
:1006F800C0000030C1006308C3006208C2000A12CB
:100708008A1129250A128A11831203134008303EE0
:10071800C8004808B8000A30C0000030C100770897
:10072800C3007608C2000A128A1158240A128A11D4
:10073800831203134008303EC8004808BA000A3044
:10074800C0000030C1007708C3007608C2000A1252
:100758008A1129250A128A11831203134008303E90
:10076800C8004808BB000A30C0000030C100650856
:10077800C3006408C2000A128A1158240A128A1196
:10078800831203134008303EC8004808BD000A30F1
:10079800C0000030C1006508C3006408C2000A1226
:1007A8008A1129250A128A11831203134008303E40
:1007B800C8004808BE000A30C0000030C100610807
:1007C800C3006008C2000A128A1158240A128A114A
:1007D800831203134008303EC8004808A6000A30B8
:1007E800C0000030C1006108C3006008C2000A12DE
:1007F8008A1129250A128A11831203134008303EF0
:10080800C8004808A7000A30C0000030C1005F08CF
:10081800C3005E08C2000A128A1158240A128A11FB
:10082800831203134008303EC8004808A9000A3064
:10083800C0000030C1005F08C3005E08C2000A1291
:100848008A1129250A128A11831203134008303E9F
:10085800C8004808AA000A30C0000030C1005D087E
:10086800C3005C08C2000A128A1158240A128A11AD
:10087800831203134008303EC8004808AE000A300F
:10088800C0000030C1005D08C3005C08C2000A1245
:100898008A1129250A128A11831203134008303E4F
:1008A800C8004808AF00080083120313C501C11F20
:1008B8005E2C5F2C662CC009C109C00A0319C10A45
:1008C800C501C50AC31F692C6A2C732CC209C30948
:1008D800C20A0319C30A0130F4007408C506C60128
:1008E800C7014008410403197A2C7B2CB22CC4019F
:1008F800C40A892C01300310C00DC10DFF3E031D31
:100908007F2C0130F4007408C407C11F8C2C8D2C77
:100918007E2C01300310C60DC70DFF3E031D8E2C23
:1009280041084302031D9A2C40084202031C9D2CD7
:100938009E2CA52C4008C2024108031CC303C30215
:10094800461401300310C10CC00CFF3E031DA62C39
:100958000130C402031DB12CB22C8D2C450803199B
:10096800B62CB72CBC2CC609C709C60A0319C70A76
:100978004708C1004608C00008000030831203136E
:10098800CB000030CA000030C9000030C80043085E
:100998004204410440040319D22CD32C202DCC014D
:1009A800CC0AE32C0130F4000310C00DC10DC20DB8
:1009B800C30DF40BD82C0130F4007408CC07C31F06
:1009C800E62CE72CD62C0130F4000310C80DC90D15
:1009D800CA0DCB0DF40BE92C43084702031DFE2C6E
:1009E80042084602031DFE2C41084502031DFE2C49
:1009F80040084402031C012D022D112D4008C40299
:100A08004108031C410FC5024208031C420FC602DD
:100A18004308031C430FC702481401300310C30CDA
:100A2800C20CC10CC00CFF3E031D122D0130CC02BC
:100A3800031D1F2D202DE72C4B08C3004A08C200B8
:100A48004908C1004808C000080083120313C50103
:100A5800C31F2F2D302D372DC209C309C20A031910
:100A6800C30AC501C50AC11F3A2D3B2D402DC00937
:100A7800C109C00A0319C10A400841040319452DD8
:100A8800462D752DC401C40A542D01300310C00D24
:100A9800C10DFF3E031D4A2D0130F4007408C40740
:100AA800C11F572D582D492D41084302031D5E2DA6
:100AB80040084202031C612D622D682D4008C202C5
:100AC8004108031CC303C30201300310C10CC00C4E
:100AD800FF3E031D692D0130C402031D742D752DC1
:100AE800582D45080319792D7A2D7F2DC209C30980
:100AF800C20A0319C30A4308C1004208C00008001B
:100B080000300A128A1567270A128A1134308312B4
:100B18000313C300F130C200C20B902DC30B902DFC
:100B280030300A128A11BD270A128A110D30831239
:100B38000313C300FB30C200C20BA02DC30BA02DB2
:100B480030300A128A11BD270A128A111D30831209
:100B58000313C3009030C200C20BB02DC30BB02DDD
:100B6800000030300A128A11BD270A128A11383063
:100B78000A128A11BD270A128A110C300A128A1128
:100B8800BD270A128A1101300A128A11BD270A12DA
:100B98008A1106300A128A11BD270A128A11080022
:100BA80083120313C501C601400841040319DD2D52
:100BB800DE2D152EC401C40AEC2D01300310C00D22
:100BC800C10DFF3E031DE22D0130F4007408C40777
:100BD800C11FEF2DF02DE12D01300310C50DC60DFD
:100BE800FF3E031DF12D41084302031DFD2D400862
:100BF8004202031C002E012E082E4008C2024108A2
:100C0800031CC303C302451401300310C10CC00CFC
:100C1800FF3E031D092E0130C402031D142E152E9C
:100C2800F02D4608C1004508C000080083120313D0
:100C3800470848040319212E222E512ECB01CB0A36
:100C4800302E01300310C70DC80DFF3E031D262EA0
:100C58000130F5007508CB07C81F332E342E252E1A
:100C680048084A02031D3A2E47084902031C3D2E34
:100C78003E2E442E4708C9024808031CCA03CA026C
:100C880001300310C80CC70CFF3E031D452E013070
:100C9800CB02031D502E512E342E4A08C800490895
:100CA800C700080028308312031394008316031327
:100CB8009101831203134D08D1004E08D2004F084A
:100CC800D3005008D40002300310D10DD20DD30D3B
:100CD800D40DFF3E031D682E5408C3005308C200FC
:100CE8005208C1005108C0000030C7007A30C60061
:100CF8001230C5000030C4000A128A11C1240A1239
:100D08008A11831203134008FF3E831603139300CE
:100D18009401871507160800831203138C1E952E5D
:100D2800962E9E2E8C121A08F000F1017008F80019
:100D38007108F9000A3078067904031DA42EA52E3F
:100D4800A72E8901C32E0B3078067904031DAD2E1A
:100D5800AE2EB12E01308900C32E0C3078067904EE
:100D6800031DB72EB82EB92EA52E0D30780679049E
:100D7800031DBF2EC02EC32E02308900C32E730858
:100D88008A00720E8300FE0E7E0E0900831603177A
:100D980088018901831603138501860187110713CA
:100DA800871788018901831203138501860187014A
:100DB800880189010030D0000130CF008630CE0094
:100DC800A030CD000A128A1156260A128A118316FB
:100DD80003139A010C309900981618128312031302
:100DE800981718169A01831603138C160C1283127F
:100DF80003138C128B1708000A128A1594270A12FB
:100E08008A118316031391150A128A1594270A1258
:100E18008A11831203131308C000C1014008C200DD
:100E28004108C3000A128A1594270A128A1174030A
:100E38007504031D202F212F252F831603139112CC
:100E4800282F8316031391161116831203134308D0
:100E5800F5004208F400080083120313C400440399
:100E6800031D372F382F442F42087F3EC300430805
:100E7800C50045080A128A11BD270A128A11552F82
:100E880002304406031D492F4A2F552F4208BF3E02
:100E9800C3004308C50045080A128A11BD270A1273
:100EA8008A11080083120313C400C201C3016F2F03
:100EB80042084407C1004108840000080A128A1544
:100EC800D3270A128A11013083120313C2070318A9
:100ED800C30A0030C30742084407C1004108840020
:100EE80083130008031D792F7A2F5C2F08008312C3
:100EF8000313C000C101912F41084007F500750890
:100F0800840000080A128A1588270A128A110130FB
:100F1800F500750883120313C10741084007F5005F
:100F28007508840083130008031D9B2F9C2F802FB6
:100F3800080044344134543445343A34203420349D
:100F480020342F34203420342F34323430342034B9
:100F580020340034543449344D3445343A34203440
:100F6800203420343A34203420343A3420342034A5
:100F78000034F50083120313091075080A128A1544
:100F880067270A128A118312031389140B308312FC
:100F98000313C1006130C000C00BD02FC10BD02F8C
:100FA800D52F831203138910080083120313C50079
:100FB8000F304505C2000A30C3004308F400450855
:100FC800C40004300310C40CFF3E031DE62F440880
:100FD8000A128A15E9270A128A1183120313420793
:100FE80008000A128A1594270A128A1174088312B3
:060FF80003139300080042
:1010000008308A000408840A82070034013400345E
:101010000A34003464340034E834033410342734A0
:0A10200025342E34303469340034D6
:101ECE00F400740883120313880008000A128A159E
:101EDE0094270A128A1583160313911408000A1206
:101EEE008A1594270A128A158316031311140800F3
:101EFE000A128A1594270A128A15831603131115CE
:101F0E000800F40083160313981C8E2F8F2F892F31
:101F1E00740883120313990008008316031314190F
:101F2E00992F9A2F942F11081F39031D9F2FA02F21
:101F3E00942F080000300A128A11BD270A128A1542
:101F4E0001300A128A11BD270A128A150800F500FF
:101F5E00F4013A3075020318B52FB62FBE2F30306C
:101F6E007502031CBB2FBC2FBE2FF401F40A740C98
:101F7E0008007E088A007F0882000A128A15C02790
:101F8E000A128A158000840A04087D06031900349B
:101F9E00FF0A0319FE0AC42F83120313C00009148B
:101FAE0040080A128A1567270A128A15831203132C
:101FBE0089141A30F500F50BE22F0000831203137B
:101FCE008910080083120313C100C001411CF02FB9
:101FDE00F12FF52F7408F5007508C0070310F40DE6
:101FEE000310C10C4108031DFD2FFE2FED2F4008DD
:021FFE000800D9
:04400E00D420FF3F7C
:00000001FF
