:020000040000FA
:060000000A128A11E02F34
:10046800F000700883120313880008000A128A112A
:1004780062220A128A1183160313111408000A1241
:100488008A1162220A128A118316031311150800B1
:100498000A128A1162220A128A117008831203133F
:1004A80093000800F00083160313981C5C2A5D2A49
:1004B800572A700883120313990008008316031340
:1004C8001419672A682A622A11081F39031D6D2A20
:1004D8006E2A622A080000300A128A11A5220A121E
:1004E8008A1101300A128A11A5220A128A110800FB
:1004F8007E088A007F0882000A128A117C220A126A
:100508008A118000840A04087D0603190034FF0A52
:100518000319FE0A802AF2008312031309147208D1
:100528000A128A1134220A128A11831203138914B7
:100538001A30F100F10B9E2A000083120313891070
:100548000800F30083120313091073080A128A11B2
:1005580034220A128A118312031389140B30F20011
:100568006230F100F10BB62AF20BB62A00008312B2
:1005780003138910080044344134543445343A3460
:10058800203420342F34203420342F3420342034A5
:100598000034543449344D3445343A34203420340A
:1005A8003A34203420343A34203420340034F300F0
:1005B800F201ED2A72087307F1007108840000083F
:1005C8000A128A1156220A128A110130F1007108A2
:1005D800F20772087307F10071088400831300089A
:1005E800031DF72AF82ADE2A0800F600F401F501AF
:1005F8000E2B74087607F3007308840000080A12AB
:100608008A118F220A128A110130F4070318F50A99
:100618000030F50774087607F30073088400831325
:100628000008031D182B192BFD2A0800F600760375
:10063800031D1F2B202B2C2B74087F3EF5007508FB
:10064800F70077080A128A11A5220A128A113D2B8F
:1006580002307606031D312B322B3D2B7408BF3E2A
:10066800F5007508F70077080A128A11A5220A1200
:100678008A110800F401F501701C432B442B4A2B06
:100688007208F4070318F50A7308F5070130031018
:10069800F20DF30DFF3E031D4B2B01300310F10C3F
:1006A800F00CFF3E031D522B70087104031D5D2BD7
:1006B8005E2B402B7508F1007408F00008008316C3
:1006C80003178801890183160313860189018801AC
:1006D8008312031387018901880186010030CD0048
:1006E8000130CC008630CB00A030CA000A128A1133
:1006F800BA230A128A11831603139A010C3099003F
:100708009816181283120313981718169A010800DE
:100718000A128A1162220A128A118316031391158A
:100728000A128A1162220A128A1183120313130809
:10073800F200F3017208F4007308F5000A128A1136
:1007480062220A128A1170037104031DAC2BAD2BAF
:10075800B12B831603139112B42B8316031391162E
:1007680011167508F1007408F0000800283083128B
:1007780003139400831603139101831203134A0889
:10078800CE004B08CF004C08D0004D08D1000230F5
:100798000310CE0DCF0DD00DD10DFF3E031DCC2B78
:1007A8005108F3005008F2004F08F1004E08F0001D
:1007B8000030F7007A30F6001230F5000030F4000F
:1007C8000A128A11BB240A128A117008FF3E831686
:1007D8000313930094018715071608007008710425
:1007E8000319F72BF82B272CF501F50A062C0130F5
:1007F8000310F00DF10DFF3E031DFC2B0130F4003A
:100808007408F507F11F092C0A2CFB2B71087302D9
:10081800031D102C70087202031C132C142C1A2CA4
:100828007008F2027108031CF303F302013003108D
:10083800F10CF00CFF3E031D1B2C0130F502031DCB
:10084800262C272C0A2C7308F1007208F0000800E7
:10085800F501F601700871040319332C342C6B2C44
:10086800F701F70A422C01300310F00DF10DFF3E9D
:10087800031D382C0130F4007408F707F11F452CCC
:10088800462C372C01300310F50DF60DFF3E031DE5
:10089800472C71087302031D532C70087202031C45
:1008A800562C572C5E2C7008F2027108031CF303B7
:1008B800F302751401300310F10CF00CFF3E031D18
:1008C8005F2C0130F702031D6A2C6B2C462C76082E
:1008D800F1007508F000080000300A128A1134226D
:1008E8000A128A113430F500F130F400F40B7A2C36
:1008F800F50B7A2C7F2C30300A128A11A5220A12A5
:100908008A110D30F500FB30F400F40B892CF50B3F
:10091800892C8E2C30300A128A11A5220A128A11CB
:100928001D30F5009130F400F40B982CF50B982C41
:1009380030300A128A11A5220A128A1138300A1296
:100948008A11A5220A128A110C300A128A11A522CC
:100958000A128A1101300A128A11A5220A128A1172
:1009680006300A128A11A5220A128A1108000030DC
:10097800FC000030FB000030FA000030F90073087A
:100988007204710470040319CA2CCB2C182DFD01B4
:10099800FD0ADB2C0130F8000310F00DF10DF20D0B
:1009A800F30DF80BD02C0130F8007808FD07F31F81
:1009B800DE2CDF2CCE2C0130F8000310F90DFA0DD7
:1009C800FB0DFC0DF80BE12C73087702031DF62CC8
:1009D80072087602031DF62C71087502031DF62CA9
:1009E80070087402031CF92CFA2C092D7008F40203
:1009F8007108031C710FF5027208031C720FF602CE
:100A08007308031C730FF702791401300310F30CF9
:100A1800F20CF10CF00CFF3E031D0A2D0130FD0213
:100A2800031D172D182DDF2C7C08F3007B08F2001E
:100A38007A08F1007908F00008000A128A11632385
:100A48000A128A118316031388010A128A11702464
:100A58000A128A110A128A116F220A128A11F401E3
:100A6800F40A01300A128A111A230A128A112E3046
:100A78000A128A11F9220A128A11F401F40A0230C0
:100A88000A128A111A230A128A1120300A128A11AC
:100A9800F9220A128A110A128A113A220A128A11B2
:100AA800D030F0000030F1000A128A114C220A12EC
:100AB8008A110030F000F1000A128A114C220A1241
:100AC8008A110A128A113A220A128A11D130F000C8
:100AD8000030F1000A128A114C220A128A110130E0
:100AE800F0000030F1000A128A118C230A128A11D0
:100AF800710883120313C7007008C6000130F000A4
:100B08000030F1000A128A118C230A128A11710826
:100B180083120313C5007008C4000130F0000030D0
:100B2800F1000A128A118C230A128A1171088312A1
:100B38000313C3007008C2000130F0000030F10058
:100B48000A128A118C230A128A110130F00000302F
:100B5800F1000A128A118C230A128A117108831271
:100B68000313C1007008C0000130F0000030F1002C
:100B78000A128A118C230A128A117108831203132C
:100B8800BF007008BE000030F000F1000A128A11A0
:100B98008C230A128A11710883120313BD0070088E
:100BA800BC000A128A1143220A128A110A128A11F7
:100BB80021260A128A11823083120313D300DD30F2
:100BC800D200D20BE52DD30BE52DF401F40A013048
:100BD8000A128A111A230A128A112E300A128A114D
:100BE800F9220A128A11F401F40A02300A128A114F
:100BF8001A230A128A1120300A128A11F9220A12BB
:100C08008A112E300A128A11DB220A128A11203028
:100C18000A128A11DB220A128A110D300A128A116D
:100C280056220A128A110A300A128A1156220A1208
:100C38008A114F2D0A128A1100280F3083120313CC
:100C48004605F80000304705F900460E0F39F00058
:100C5800470EF039F004470E0F39F1000A30F20060
:100C68000030F3000A128A113E230A128A1178080A
:100C7800700783120313C60079080318790A7107ED
:100C8800C7000F304405F80000304505F900440E50
:100C98000F39F000450EF039F004450E0F39F10018
:100CA8000A30F2000030F3000A128A113E230A12B9
:100CB8008A117808700783120313C400790803188F
:100CC800790A7107C5000F304205F8000030430566
:100CD800F900420E0F39F000430EF039F004430ECC
:100CE8000F39F1000A30F2000030F3000A128A11BD
:100CF8003E230A128A117808700783120313C20070
:100D080079080318790A7107C3000F304005F80005
:100D180000304105F900400E0F39F000410EF0395E
:100D2800F004410E0F39F1000A30F2000030F300F0
:100D38000A128A113E230A128A1178087007831250
:100D48000313C00079080318790A7107C1000F302E
:100D58003E05F80000303F05F9003E0E0F39F0005F
:100D68003F0EF039F0043F0E0F39F1000A30F2005F
:100D78000030F3000A128A113E230A128A117808F9
:100D8800700783120313BE0079080318790A7107E4
:100D9800BF000F303C05F80000303D05F9003C0E5F
:100DA8000F39F0003D0EF039F0043D0E0F39F10017
:100DB8000A30F2000030F3000A128A113E230A12A8
:100DC8008A117808700783120313BC007908031886
:100DD800790A7107BD000A30F0000030F1004708B9
:100DE800F3004608F2000A128A11F2230A128A1145
:100DF8007008303EF800780883120313BA000A30EE
:100E0800F0000030F1004708F3004608F2000A122B
:100E18008A112C240A128A117008303EF8007808CA
:100E280083120313B9000A30F0000030F1004508BE
:100E3800F3004408F2000A128A11F2230A128A11F6
:100E48007008303EF800780883120313B7000A30A0
:100E5800F0000030F1004508F3004408F2000A12DF
:100E68008A112C240A128A117008303EF80078087A
:100E780083120313B6000A30F0000030F100430873
:100E8800F3004208F2000A128A11F2230A128A11A8
:100E98007008303EF800780883120313B4000A3053
:100EA800F0000030F1004308F3004208F2000A1293
:100EB8008A112C240A128A117008303EF80078082A
:100EC80083120313B3000A30F0000030F1003D082C
:100ED800F3003C08F2000A128A11F2230A128A115E
:100EE8007008303EF800780883120313AC000A300B
:100EF800F0000030F1003D08F3003C08F2000A124F
:100F08008A112C240A128A117008303EF8007808D9
:100F180083120313AB000A30F0000030F1003F08E1
:100F2800F3003E08F2000A128A11F2230A128A110B
:100F38007008303EF800780883120313A9000A30BD
:100F4800F0000030F1003F08F3003E08F2000A12FA
:100F58008A112C240A128A117008303EF800780889
:100F680083120313A8000A30F0000030F100410892
:100F7800F3004008F2000A128A11F2230A128A11B9
:100F88007008303EF800780883120313A6000A3070
:100F9800F0000030F1004108F3004008F2000A12A6
:100FA8008A112C240A128A117008303EF800780839
:100FB80083120313A500080083133C30FD000230A0
:100FC800FE00BF30FF00203084000A128A11802200
:100FD8000A128A11BC01BD01BE01BF01C001C101D5
:100FE800C201C301C401C501C601C701C801C901C5
:080FF80083010A128A11212D68
:04400E00D420FF3F7C
:00000001FF
