:020000040000FA
:060000000A128A110C280F
:10000800FE00030EF1000A08F2000A128A114528C0
:100018000A128A110F28F30183010A128A116D2826
:100028006130831603138F0004308316031788008A
:10003800890183160313870183120313870183162B
:10004800031388018312031388018316031389019C
:100058008312031389010330831603138600831266
:1000680003138601043083160313850083120313D8
:1000780085018B178B150B10831603131614961412
:1000880008000B1C48284928652883120313061CFE
:100098004E284F2858280618522853284F287308E6
:1000A800013EF0007008F300861C5B285C28652878
:1000B80086185F2860285C287308FF3EF0007008E7
:1000C800F3000B1072088A00710E8300FE0E7E0E7C
:1000D8000900F3010A128A1114200A128A110A125D
:1000E8008A117C200A128A1173280A128A110C2894
:0A00F8007308831203138700080049
:04400E00D420FF3F7C
:00000001FF
