:020000040000FA
:060000000A128A110E280D
:10000800FE00030EF5000408F6000A08F7000A12BD
:100018008A11BE280A128A111128F801F901FA0179
:10002800FB01FC01FD0183120313A001A101A20140
:10003800A30183010A128A117529F200831603139A
:10004800880183120313880156283F308800BD2891
:1000580006308800BD285B308800BD284F308800F6
:10006800BD2866308800BD286D308800BD287D30E9
:100078008800BD2807308800BD287F308800BD284B
:100088006F308800BD2877308800BD281F30880071
:10009800BD284E308800BD283D308800BD28473037
:1000A8008800BD287208F000F1017108003A0319B0
:1000B8005E2829287008003A03192928013A0319EB
:1000C8002C28033A03192F28013A03193228073A32
:1000D80003193528013A03193828033A03193B282C
:1000E800013A03193E280F3A03194128013A031926
:1000F8004428033A03194728013A03194A28073ABA
:1001080003194D28013A03195028033A03193228D4
:10011800013A031953281F3A03194128303A0319A1
:100128003528103A03194D28703A03192F28103A28
:1001380003194728303A03193B28103A0319322883
:10014800F03A03192C28103A03194428303A0319B5
:100158003828103A03195028703A03193228103AEF
:1001680003194A28303A03193E28103A031953282C
:10017800292808000B1CC128C228E228831203136F
:10018800061CC728C828D3280618CB28CC28C82876
:100198007D08013EF3007308FD007D088700861C7A
:1001A800D628D728E2288618DA28DB28D7287D0819
:1001B800FF3EF3007308FD007D0887000B108312D3
:1001C80003130C1FE828E92823290C130630F40030
:1001D8003030F300F30BEE28F40BEE280000831206
:1001E80003139F141D291E08F3007308F0008316DB
:1001F80003131E080A128A11F1210A128A11F40047
:100208007408FC007C080A128A11E7210A128A1174
:10021800F3007308FB007C080A128A11C0210A1235
:100228008A11F3007308FA000A128A119D210A1232
:100238008A11831203139F1822292329F7280B1DDB
:10024800262927292F290B11043081007908013E1E
:10025800F3007308F90077088A0076088400750EA1
:100268008300FE0E7E0E09006130831603138F0093
:100278000430831603178800890183160313870146
:100288008312031387018316031388018312031350
:10029800880183160313890183120313890103302C
:1002A8008316031386008312031386010430831612
:1002B800031385008312031385018B178B150B100D
:1002C80083160313161496140B174930831203135D
:1002D8009F00831603139F010C17831203130C1737
:1002E8000800FD010A128A1138210A128A117908B8
:1002F80003197F2980298629F9010A128A11D82130
:100308000A128A117C087D0203188B298C299029EE
:100318008312031309147B297D087C02031895298D
:1003280096297B298312031309107B290A128A1143
:100338000E288312031389017808031DA429A5290F
:10034800B0297B080A128A1121200A128A11831205
:10035800031388008914BF297803031DB429B5291C
:10036800BF297A080A128A1121200A128A118312D7
:100378000313880009150800F20072080F39F0000D
:1003880003300310F00DFF3E031DC5290310700D47
:10039800F100710883120313A20022080F39F0003C
:1003A8007008A000200808007803031DDC29DD2957
:1003B800DF29F801E6297808031DE329E429E6295D
:1003C800F801F80A0800F10071080F39F000700808
:1003D80083120313A10021080800831203131E08C7
:0A03E800F1007108A30023080800CB
:04400E00D420FF3F7C
:00000001FF
