:020000040000FA
:060000000A128A110E280D
:10000800FE00030EF5000408F6000A08F7000A12BD
:100018008A11BE280A128A111128F801F901FA0179
:10002800FB01FC01FD0183120313A001A101A20140
:10003800A30183010A128A117429F200831603139B
:10004800880183120313880156283F308800BD2891
:1000580006308800BD285B308800BD284F308800F6
:10006800BD2866308800BD286D308800BD287D30E9
:100078008800BD2807308800BD287F308800BD284B
:100088006F308800BD2877308800BD281F30880071
:10009800BD284E308800BD283D308800BD28473037
:1000A8008800BD287208F000F1017108003A0319B0
:1000B8005E2829287008003A03192928013A0319EB
:1000C8002C28033A03192F28013A03193228073A32
:1000D80003193528013A03193828033A03193B282C
:1000E800013A03193E280F3A03194128013A031926
:1000F8004428033A03194728013A03194A28073ABA
:1001080003194D28013A03195028033A03193228D4
:10011800013A031953281F3A03194128303A0319A1
:100128003528103A03194D28703A03192F28103A28
:1001380003194728303A03193B28103A0319322883
:10014800F03A03192C28103A03194428303A0319B5
:100158003828103A03195028703A03193228103AEF
:1001680003194A28303A03193E28103A031953282C
:10017800292808000B1CC128C228E228831203136F
:10018800061CC728C828D3280618CB28CC28C82876
:100198007D08013EF3007308FD007D088700861C7A
:1001A800D628D728E2288618DA28DB28D7287D0819
:1001B800FF3EF3007308FD007D0887000B108312D3
:1001C80003130C1FE828E92823290C130630F40030
:1001D8003030F300F30BEE28F40BEE280000831206
:1001E80003139F141D291E08F3007308F0008316DB
:1001F80003131E080A128A11EE210A128A11F4004A
:100208007408FC007C080A128A11E4210A128A1177
:10021800F3007308FB007C080A128A11BD210A1238
:100228008A11F3007308FA000A128A119C210A1233
:100238008A11831203139F1822292329F7280B1DDB
:10024800262927292E290B11043081000130F300BB
:100258007308F90777088A0076088400750E83000A
:10026800FE0E7E0E09006130831603138F000430E2
:1002780083160317880089018316031387018312E5
:10028800031387018316031388018312031388015C
:10029800831603138901831203138901033083161C
:1002A8000313860083120313860104308316031395
:1002B80085008312031385018B178B150B1083168A
:1002C8000313161496140B174930831203139F0057
:1002D800831603139F010C17831203130C170800CE
:1002E800FD010A128A1137210A128A1179080319A5
:1002F8007E297F298529F9010A128A11D5210A1236
:100308008A117C087D0203188A298B298F29831278
:10031800031309147A297D087C0203189429952966
:100328007A298312031309107A290A128A110E28CE
:100338008312031389017808031DA329A429AE2970
:100348007B080A128A1121200A128A1183120313C8
:100358008914BC297803031DB229B329BC297A085A
:100368000A128A1121200A128A118312031309150D
:100378000800F20072080F39F00003300310F00D86
:10038800FF3E031DC2290310700DF100710883128E
:100398000313A20022080F39F0007008A0002008FB
:1003A80008007803031DD929DA29DC29F801E32993
:1003B8007808031DE029E129E329F801F80A080073
:1003C800F10071080F39F000700883120313A100BF
:1003D80021080800831203131E08F1007108A30006
:0403E80023080800DE
:04400E00D420FF3F7C
:00000001FF
