:020000040000FA
:060000000A128A110C280F
:10000800FE00030EF2000A08F3000A128A111528EE
:100018000A128A110F28F001F10183010A128A11CC
:1000280070280B1C182819283D2883120313061C56
:100038001E281F282C280618222823281F280714C2
:100048007008013EF00071080318013E003EF100FF
:10005800861C2F2830283D28861833283428302835
:1000680087157008FF3EF00071080318013EFF3E37
:10007800F1000B1073088A00720E8300FE0E7E0ECC
:100088000900831603178801890183160313870162
:100098008312031387018316031388018312031342
:1000A800880183160313890183120313890103301E
:1000B8008316031386008312031386018316031322
:1000C80085018312031385018B178B150B1083167B
:1000D8000313161496140800F001F1010A128A118C
:1000E80045200A128A110A128A1180200A128A11DE
:1000F80077280A128A110C287008831203138700C4
:020108000800ED
:04400E00D120FF3F7F
:00000001FF
