:020000040000FA
:060000000A128A110E280D
:10000800FE00030EF5000408F6000A08F7000A12BD
:100018008A11BF280A128A111128F801F901FA0178
:10002800FB01FC01FD0183120313A001A101A20140
:10003800A301A40183010A128A117829F200831608
:100048000313880183120313880157283F3088005F
:10005800BE2806308800BE285B308800BE284F3096
:100068008800BE2866308800BE286D308800BE280B
:100078007D308800BE2807308800BE287F30880081
:10008800BE286F308800BE2877308800BE281F3011
:100098008800BE284E308800BE283D308800BE2823
:1000A80047308800BE287208F000F1017108003A54
:1000B80003195F282A287008003A03192A28013AE8
:1000C80003192D28033A03193028013A0319332854
:1000D800073A03193628013A03193928033A03194C
:1000E8003C28013A03193F280F3A03194228013ADC
:1000F80003194528033A03194828013A03194B28DC
:10010800073A03194E28013A03195128033A0319EB
:100118003328013A031954281F3A03194228303A60
:1001280003193628103A03194E28703A0319302853
:10013800103A03194828303A03193C28103A031991
:100148003328F03A03192D28103A03194528303A74
:1001580003193928103A03195128703A031933281A
:10016800103A03194B28303A03193F28103A03195B
:1001780054282A2808000B1CC228C328DF28831209
:100188000313061CC828C928D2280618CC28CD284D
:10019800C9287D08013EF3007308FD00861CD52898
:1001A800D628DF288618D928DA28D6287D08FF3EE1
:1001B800F3007308FD000B10831203130C1FE528CE
:1001C800E62822290C130330F4009730F300F30BD0
:1001D800EB28F40BEB28F028831203139F141C2937
:1001E8001E08F3007308F000831603131E080A1292
:1001F8008A11E8210A128A11F4007408FC007C08AC
:100208000A128A11DE210A128A11F3007308FB0010
:100218007C080A128A11C6210A128A11F30073088F
:1002280083120313A4000A128A11A3210A128A1145
:10023800831203139F1821292229F4280B1D25292D
:1002480026292E290B11043081007A08013EF3007B
:100258007308FA0077088A0076088400750E830010
:10026800FE0E7E0E09006130831603138F000430E2
:1002780083160317880089018316031387018312E5
:10028800031387018316031388018312031388015C
:10029800831603138901831203138901033083161C
:1002A8000313860083120313860104308316031395
:1002B800850003308312031385008B178B150B10F1
:1002C80083160313161496140B174930831203135D
:1002D8009F00043081008130831603138100A93008
:1002E8008B00033096000800FD010A128A1137219D
:1002F8000A128A11831603139F010C170A128A1116
:10030800F0210A128A110A128A11F5210A128A1199
:100318007C087D02031891299229962983120313D8
:10032800091582297D087C0203189B299C298229AA
:1003380083120313091182290A128A110E288312C3
:100348000313890178087904031DAB29AC29B62960
:100358007B080A128A1122200A128A1183120313B7
:100368008914C52978037904031DBB29BC29C5292B
:100378007B080A128A1122200A128A118312031397
:1003880009150800F20072080F39F0000330031055
:10039800F00DFF3E031DCB290310700DF10071080D
:1003A80083120313A20022080F39F0007008A0007E
:1003B80020080800F10071080F39F0007008831256
:1003C8000313A10021080800831203131E08F1007B
:1003D8007108A300230808007D088312031387000F
:0C03E80008007C08831203138800080042
:04400E00D420FF3F7C
:00000001FF
