:020000040000FA
:100000000A128A11F32FFF1B0D2883137F18831701
:100010000008840A0319FF0A080000308A00040857
:10002000840A82070034013400340A340034643412
:100030000034E83403341034273425342E34323479
:100040006934563420342034203425342E3433346B
:100050006934203420342034203425342E34323492
:1000600069340034533431343A3400345334323444
:0C0070003A340034533433343A34003452
:1004A400F00070088312031393000800F000700832
:1004B400831203138800080083160313141C632A91
:1004C400642A5E2A080064008001840A0406031971
:1004D40000340406662A0A128A115E220A128A115C
:1004E4008312031313080800F00083160313981CE7
:1004F4007C2A7D2A772A7008831203139900080046
:1005040000300A128A11E2220A128A1101300A12F8
:100514008A11E2220A128A110800F100F0013A302D
:1005240071020318962A972A9F2A30307102031CFD
:100534009C2A9D2A9F2AF001F00A700C0800F300FF
:10054400F201731CA62AA72AAB2A7008F1007108CD
:10055400F2070310F00D0310F30C7308031DB32A04
:10056400B42AA32A72080800F200831203130914A0
:1005740072080A128A1158220A128A11831203136A
:1005840089141A30F100F10BC52A000083120313F9
:1005940089100800F300831603138712731DD32AEE
:1005A400D42AD82A720894008715DC2A70087204A9
:1005B40094008711730871048312031394000800D4
:1005C400F30083120313091073080A128A115822C4
:1005D4000A128A118312031389140B30F200623059
:1005E400F100F10BF32AF20BF32A00008312031338
:1005F40089100800F200F3010E2B73087207F10052
:100604007108840000080A128A1176220A128A11DB
:100614000130F1007108F30773087207F1007108E3
:10062400840083130008031D182B192BFF2A0800CC
:10063400F6007603031D1F2B202B2C2B74087F3E02
:10064400F5007508F70077080A128A11E2220A12E7
:100654008A113D2B02307606031D312B322B3D2BA4
:100664007408BF3EF5007508F70077080A128A116E
:10067400E2220A128A110800F401F501701C432BCE
:10068400442B4A2B7208F4070318F50A7308F5077C
:1006940001300310F20DF30DFF3E031D4B2B01300F
:1006A4000310F10CF00CFF3E031D522B7008710473
:1006B400031D5D2B5E2B402B7508F1007408F000C0
:1006C40008008312031387100330F2009730F100FF
:1006D400F10B6A2BF20B6A2B6F2B00300A128A1172
:1006E40052220A128A110A128A116D220A128A11DE
:1006F400F100710883120313C0000330F200973035
:10070400F100F10B832BF20B832B882B8312031341
:1007140087140230F3000430F200BA30F100F10B18
:10072400912BF20B912BF30B912B000008008316F5
:10073400031788018901831603138601890188013F
:100744008312031387018901880186018316031329
:1007540007108312031307148316031387108312DD
:100764000313871483160313071183120313071546
:10077400F001F101F20120300A128A11CC220A128E
:100784008A110B17831603138C168B179A010C30DE
:1007940099009816181283120313981718169A01C1
:1007A4000800780879040319D82BD92B082CFD01EB
:1007B400FD0AE72B01300310F80DF90DFF3E031D70
:1007C400DD2B0130FC007C08FD07F91FEA2BEB2B25
:1007D400DC2B79087B02031DF12B78087A02031CB9
:1007E400F42BF52BFB2B7808FA027908031CFB0386
:1007F400FB0201300310F90CF80CFF3E031DFC2B27
:100804000130FD02031D072C082CEB2B7B08F9009B
:100814007A08F8000800F801F901322C7808730707
:10082400F6007408F5000318F50AF81F1A2CF503EE
:100834007508F700770883120313FF007608840015
:100844000A128A1103200A128A110A128A11B62284
:100854000A128A110130F8070318F90A0030F9075F
:1008640078087307F6007408F5000318F50AF81FF2
:100874003C2CF5037508F700770883120313FF0077
:10088400760884000A128A1103200A128A11003A97
:10089400031D4D2C4E2C102C0800F501F601700898
:1008A40071040319562C572C8E2CF701F70A652C6A
:1008B40001300310F00DF10DFF3E031D5B2C0130E0
:1008C400F4007408F707F11F682C692C5A2C0130C6
:1008D4000310F50DF60DFF3E031D6A2C710873021B
:1008E400031D762C70087202031C792C7A2C812C3F
:1008F4007008F2027108031CF303F302751401304B
:100904000310F10CF00CFF3E031D822C0130F702A2
:10091400031D8D2C8E2C692C7608F1007508F000CF
:10092400080000300A128A1158220A128A1134303F
:10093400F500F130F400F40B9D2CF50B9D2CA22C4A
:1009440030300A128A11E2220A128A110D30F5009F
:10095400FB30F400F40BAC2CF50BAC2CB12C303088
:100964000A128A11E2220A128A111D30F50091300E
:10097400F400F40BBB2CF50BBB2C30300A128A119B
:10098400E2220A128A1138300A128A11E2220A1269
:100994008A110C300A128A11E2220A128A110130D9
:1009A4000A128A11E2220A128A1106300A128A11E4
:1009B400E2220A128A11080083120313071001307D
:1009C4000A128A1152220A128A110A128A116D22FB
:1009D4000A128A11FB007B0883120313C100FF3043
:1009E400F6000030F7004108FB00FC017B08F00032
:1009F4007C08F1003230F2000030F3000A128A1150
:100A04003E230A128A117108F9007008F8000A12CC
:100A14008A1187250A128A11770883120313BB00EF
:100A24007608BA000330FC009730FB00FB0B182D4E
:100A3400FC0B182D1D2D8312031307140230FD0027
:100A44000430FC00BA30FB00FB0B262DFC0B262DDA
:100A5400FD0B262D00000800831203130711033039
:100A6400FC009730FB00FB0B352DFC0B352D3A2D8C
:100A740000300A128A1152220A128A110A128A11A9
:100A84006D220A128A11FB007B0883120313BF0034
:100A9400FF30F6000030F7003F08FB00FC017B0844
:100AA400F0007C08F1009630F2000030F3000A12E6
:100AB4008A113E230A128A117108F9007008F8009D
:100AC4000A128A1187250A128A11770883120313DE
:100AD400B9007608B8000330FC009730FB00FB0B2C
:100AE400712DFC0B712D762D831203130715023023
:100AF400FD000430FC00BA30FB00FB0B7F2DFC0B27
:100B04007F2DFD0B7F2D0000080083120313D701F6
:100B1400F71F8D2D8E2D952DF609F709F60A031969
:100B2400F70AD701D70AF91F982D992DA22DF80994
:100B3400F909F80A0319F90A0130FA007A08D70604
:100B4400D801D901760877040319A92DAA2DE12D1E
:100B5400D601D60AB82D01300310F60DF70DFF3E6D
:100B6400031DAE2D0130FA007A08D607F71FBB2DFE
:100B7400BC2DAD2D01300310D80DD90DFF3E031D42
:100B8400BD2D77087902031DC92D76087802031C50
:100B9400CC2DCD2DD42D7608F8027708031CF9034B
:100BA400F902581401300310F70CF60CFF3E031D34
:100BB400D52D0130D602031DE02DE12DBC2D5708A3
:100BC4000319E52DE62DEB2DD809D909D80A031907
:100BD400D90A5908F7005808F60008000A128A11C1
:100BE40099230A128A118316031388010A128A119F
:100BF40093240A128A110A128A1182220A128A1171
:100C0400F401F40A01300A128A111A230A128A1111
:100C14002030F3008030F4000A128A110D240A12E5
:100C24008A11073083120313E7006708F4000130C8
:100C34000A128A111A230A128A112430F30080300E
:100C4400F4000A128A110D240A128A110E3083123A
:100C54000313E7006708F40001300A128A111A230B
:100C64000A128A112830F3008030F4000A128A1123
:100C74000D240A128A110A128A11DE240A128A1118
:100C84000A128A1163230A128A110A128A112E2562
:100C94000A128A11831203133F0886000B30E700FF
:100CA4006708D6003B08D8003A08D7004008E80097
:100CB400E9016808D9006908DA003908DC00380855
:100CC400DB0042300A128A1190260A128A1142303D
:100CD4000A128A11FC220A128A110D300A128A1190
:100CE40076220A128A110A300A128A1176220A120C
:100CF4008A11F401F40A02300A128A111A230A1220
:100D04008A114230F3000030F4000A128A110D24D3
:100D14000A128A113D2E0A128A1100288312031323
:100D2400E2005730DD005D08E000DC2F2530660668
:100D340003199D2E9E2EAA2E6608DD0062088400EB
:100D44005D08831380000130DD005D08E207DC2FBD
:100D5400E101560884000A128A110D200A128A1130
:100D64002E3A031DB62EB72EEE2E0130DD005D089F
:100D7400D607E501DD2E831203136508DD005D0847
:100D8400F0000A300A128A11A1220A128A1183126F
:100D94000313DE005E08E500560884000A128A1177
:100DA4000D200A128A11D03EDD005D08E5070130EE
:100DB400DD005D08D607560884000A128A110D204A
:100DC4000A128A110A128A118F220A128A1103182E
:100DD400EC2EED2EBD2EEF2EE50101308312031310
:100DE400D607FF30560784000A128A110D200A1212
:100DF4008A11E600DD00DE015E08003A0319032FC4
:100E0400DC2F5D08003A0319EE2F643A03190E2F04
:100E14000D3A03190E2FDC2F600884008313000899
:100E2400E300840A0008E4000230DD005D08E00706
:100E3400E41F1D2F1E2F272F0330DD005D08E10462
:100E4400E309E409E30A0319E40A6508031D2B2FE7
:100E54002C2F362F63086404031D312F322F362FB5
:100E64000130DD005D08E507E601E60A6608DD00FD
:100E74005D07013E84000A128A110D200A128A11AC
:100E8400DE000A128A110D200A128A11DF005F089F
:100E94006402031D4F2F5E0863020318522F532F61
:100EA400542F5E2F0130DD005D08E607053066062D
:100EB400031D5D2F5E2F382F6508DD00DE01DD1B6D
:100EC400DE035E08803A803C031D6A2F5D086602DB
:100ED40003186D2F6E2F6F2F892F8312031365084C
:100EE400DD00DE01DD1BDE035E08803ADF008030BA
:100EF4005F02031D7F2F66085D020318822F832F74
:100F0400892F831203136608DD005D08E500831250
:100F14000313610803390319902F912FD32F2D3018
:100F2400DD00620884005D08831380000130DD0069
:100F34005D08E207D32F0A30F8000030F900650895
:100F4400DD005D07013E84000A128A110D200A1299
:100F54008A11F0000A128A110D200A128A11F10076
:100F64006408F3006308F2000A128A114F240A127B
:100F74008A117108FB007008FA000A128A11D3233F
:100F84000A128A117808303E83120313DE005E08C9
:100F9400E6006608DD00620884005D0883138000B3
:100FA400982FFF30DD005D08E507650A031DDB2F80
:100FB400DC2F9D2F0130D607FF30560784000A121C
:100FC4008A110D200A128A11DD005D08E600660808
:100FD400031DED2FEE2F982E6208840083138001E9
:100FE400080083132030840056300A128A116522C7
:0C0FF4000A128A1183010A128A11F02DE2
:04400E00D620FF3F7A
:00000001FF
