:020000040000FA
:060000000A128A110C280F
:10000800FE00030EF0000A08F1000A168A15F5280A
:100018000A128A110F28FA01FB018313CC308400DD
:10002800E7300A168A15C6200A128A1183010A16B1
:100038008A110D28831603134708F5004608F400B3
:100048004508F3004408F2000030F9000030F800D9
:100058000030F7000030F6000A168A150B230A1242
:100068008A11031838283928E1288316031347080A
:1000780083120313D800831603134608831203134D
:10008800D70083160313450883120313D60083167B
:100098000313440883120313D5000A128A15022099
:1000A8000A128A1183120313580857045604550478
:1000B800031D5F286028E128831603134308803A4C
:1000C800FF0080307F02031D6B2802304202031CB0
:1000D8006E286F28E128831603134108F5004008AD
:1000E800F4003F08F3003E08F2004030F900893080
:1000F800F8007030F7005F30F6000A168A15E3251D
:100108000A128A11031889288A289328F730831637
:100118000313C2070318C30AFF30C3079B28F8302C
:1001280083160313C2070318C30AFF30C307420824
:100138000A128A159D240A128A118312031345088C
:1001480083160313C1008312031344088316031391
:10015800C00083120313430883160313BF008312DE
:100168000313420883160313BE004708F500460828
:10017800F4004508F3004408F2004108F90040087B
:10018800F8003F08F7003E08F6000A128A157E209C
:100198000A128A11750883160313B9007408B80087
:1001A8007308B7007208B6000030C7000030C600F8
:1001B8000030C5000030C4004729831603134708E0
:1001C80083120313D80083160313460883120313FC
:1001D800D70083160313450883120313D60083162A
:1001E8000313440883120313D5000A128A15022048
:1001F8000A128A1183120313580883160313B900CD
:1002080083120313570883160313B80083120313CA
:10021800560883160313B700831203135508831671
:100228000313B6003908F5003808F4003708F3005E
:100238003608F20000300A168A1587260A128A1133
:10024800750883160313A3007408A2007308A1009D
:100258007208A0004708A7004608A6004508A500A0
:100268004408A4000A168A155B230A128A11831609
:1002780003132308C7002208C6002108C500200868
:10028800C400C201C301CB01CB0A4B08831203137C
:10029800EA0001300310EA0DFF3E031D4E2903104A
:1002A8006A0D693E84000A168A150A200A128A1104
:1002B800EB000A168A150A200A128A11EC000A169F
:1002C8008A150A200A128A11ED000A168A150A20D0
:1002D8000A128A11EE006E08831603133902031DF1
:1002E8008B29831203136D08831603133802031D29
:1002F8008B29831203136C08831603133702031D1B
:100308008B29831203136B08831603133602031811
:100318008E298F2990299E29013083120313EA0020
:100328006A0883160313CB070A304B06031D9D2961
:100338009E2949294B08490783120313EA008316AB
:1003480003134A0803184A0A83120313EB0083169F
:1003580003134208831203136A07EC00831603137E
:1003680043080318430A831203136B07ED006C0854
:1003780083160313BC02831203136D088316031339
:10038800031CBD03BD0249084A040319CC29CD2921
:10039800D329FF30BC070318BD0AFF30BD0703305F
:1003A8003A0583120313EA000030831603133B0552
:1003B80083120313EB006A086B040319E429E52987
:1003C800022AFF3083160313BC070318BD0AFF3047
:1003D800BD07022A203083120313EA008316031391
:1003E80048088400831203136A08831380000130CD
:1003F800EA006A0883160313C807E529831603135E
:100408003D08803AFF0080307F02031D0D2A01302D
:100418003C020318102A112AEE290330831603130D
:100428003A0583120313EA000030831603133B05D1
:1004380083120313EB006A086B040319242A252A84
:10044800A92A2D30EA008316031348088400831272
:1004580003136A08831380000130EA006A088316D0
:100468000313C807A92A4B0883120313EA000130B3
:100478000310EA0DFF3E031D3C2A03106A0D693E76
:1004880084000A168A150A200A128A11F2000A162E
:100498008A150A200A128A11F3000A168A150A20F8
:1004A8000A128A11F4000A168A150A200A128A11F9
:1004B800F500831603133908F9003808F8003708DF
:1004C800F7003608F6000A168A1501240A128A115E
:1004D800750883160313C1007408C0007308BF00B1
:1004E8007208BE000030F5000030F4000030F30060
:1004F8000A30F2004108F9004008F8003F08F70008
:100508003E08F6000A168A15AB230A128A117508E6
:1005180083160313C1007408C0007308BF00720873
:10052800BE003E08303E83120313EA00831603130D
:1005380048088400831203136A088313800001307B
:10054800EA006A0883160313C807013083160313E9
:10055800CB024B0A031DB12AB22A372ACC2A3030E3
:1005680083120313EA0083160313480884008312D6
:1005780003136A08831380000130EA006A088316AF
:100588000313C807FF30C2070318C30AFF30C307A5
:100598004308803AFF0080307F02031DD52A0130CE
:1005A80042020318D82AD92AB32A831603134A0801
:1005B800803AFF0080307F02031DE42A0930490297
:1005C800031CE72AE82AF12A083083120313EA00F9
:1005D8006A0883160313CB00FB2A83160313490802
:1005E80083120313EA006A0883160313CB004B082F
:1005F80083120313EA00EB016A0883160313C90286
:10060800831203136B0883160313031CCA03CA025D
:100618004B080319102B112B242B2E308312031394
:10062800EA008316031348088400831203136A0838
:10063800831380000130EA006A0883160313C80791
:100648004B080A128A159D240A128A118312031371
:10065800450883160313B400831203134408831652
:100668000313B30083120313430883160313B20062
:1006780083120313420883160313B100340883124C
:100688000313AF0083160313330883120313AE005A
:1006980083160313320883120313AD008316031362
:1006A800310883120313AC0083160313470883121F
:1006B8000313AB0083160313460883120313AA001F
:1006C80083160313450883120313A9008316031323
:1006D800440883120313A8000A128A153C210A123F
:1006E8008A11831203132B08D8002A08D700290877
:1006F800D6002808D5000A128A1502200A128A1183
:1007080083120313580883160313B90083120313C3
:10071800570883160313B800831203135608831669
:100728000313B70083120313550883160313B60087
:100738004E2C4B0883120313EA0001300310EA0D14
:10074800FF3E031DA22B03106A0D693E84000A16A2
:100758008A150A200A128A11F2000A168A150A2036
:100768000A128A11F3000A168A150A200A128A1137
:10077800F4000A168A150A200A128A11F50083164F
:1007880003133908F9003808F8003708F700360865
:10079800F6000A168A1501240A128A1175088316AA
:1007A8000313C1007408C0007308BF007208BE00BC
:1007B8000030F5000030F4000030F3000A30F20099
:1007C8004108F9004008F8003F08F7003E08F60025
:1007D8000A168A15AB230A128A11750883160313A1
:1007E800C1007408C0007308BF007208BE003E084C
:1007F800303E83120313EA0083160313480884006B
:10080800831203136A08831380000130EA006A0820
:1008180083160313C8074B0883120313EA00013039
:100828000310EA0DFF3E031D142C03106A0D693EE8
:1008380084000A168A150A200A128A11F2000A167A
:100848008A150A200A128A11F3000A168A150A2044
:100858000A128A11F4000A168A150A200A128A1145
:10086800F500831603133908F9003808F80037082B
:10087800F7003608F6000A168A15AB230A128A1101
:10088800750883160313B9007408B8007308B70015
:100898007208B6000130CB024B0A031D542C552CAC
:1008A8009D2B6F2C303083120313EA008316031339
:1008B80048088400831203136A08831380000130F8
:1008C800EA006A0883160313C807FF30C90703182C
:1008D800CA0AFF30CA0749084A04031D742C752C3C
:1008E800562C792D8316031349084A04031D7D2CC1
:1008F8007E2C8C2C3908380437043604031D852CCB
:10090800862C8C2C0130C9070318CA0A0030CA0784
:100918004A08803A803C031D932C49084B0203186F
:10092800962C972CA22C83160313490883120313C1
:10093800EA006A0883160313CB00C62C8316031338
:100948004A08803A83120313EA0080306A02031DC2
:10095800B12C831603134B0849020318B42CB52C89
:10096800C62C831603134B0883120313EA00EB010A
:100978006A0883160313C900831203136B088316CE
:100988000313CA00831603133C083D040319CD2C36
:10099800CE2CE82C03303A0583120313EA0000300A
:1009A800831603133B0583120313EB006A086B04D9
:1009B8000319DF2CE02CE82CFF3083160313BC0747
:1009C8000318BD0AFF30BD07831603133B1FED2C28
:1009D800EE2C112D4A08803A83120313EA0083167D
:1009E80003133D08803A831203136A02031D002D86
:1009F800831603133C0849020318032D042D0D2DFB
:100A0800831603134908BC024A08031CBD03BD0230
:100A1800112D83160313BC01BD013D08803A803CAB
:100A2800031D182D3C084B0203181B2D1C2D302DBF
:100A3800831603134B0883120313EA00EB016A08B9
:100A480083160313BC02831203136B088316031364
:100A5800031CBD03BD02342D83160313BC01BD0165
:100A68003C083D040319392D3A2D592D20308312A5
:100A78000313EA0083160313480884008312031340
:100A88006A08831380000130EA006A08831603139A
:100A9800C807FF30BC070318BD0AFF30BD073C0874
:100AA8003D04031D582D592D3A2D03303A05831264
:100AB8000313EA000030831603133B058312031364
:100AC800EB006A086B0403196A2D6B2D792D2D3004
:100AD800EA008316031348088400831203136A0884
:100AE800831380000A168A111D2D01308316031303
:100AF800A807FF30280784000A168A150A200A1258
:100B08008A1183120313EA006A0883160313CB00C1
:100B18004B08031D902D932D0A168A110A2D831652
:100B28000313480884008313800108008312031309
:100B3800D5006E305502031CA22DA32DB22E3F30D6
:100B4800AB000030AA000030A9000030A8006430D3
:100B5800A0000030A1005508C600C7014608A20041
:100B68004708A3000A168A157A220A128A118312E4
:100B780003132008C80001300310C80DFF3E031DF1
:100B8800C02D0310480D7D3E84000A168A150A20E0
:100B98000A128A11C9000A168A150A200A128A112D
:100BA800CA000A168A150A200A128A11CB000A16E8
:100BB8008A150A200A128A11CC004C08AF004B088B
:100BC800AE004A08AD004908AC000A128A153C215B
:100BD8000A128A11831203132B08D4002A08D3009F
:100BE8002908D2002808D1000A30A0000030A1004E
:100BF8005508C600C7014608F4004708F5006430E8
:100C0800F2000030F3000A168A15FA210A128A1136
:100C1800730883120313A3007208A2000A168A1528
:100C28007A220A128A11831203132008C80001309D
:100C38000310C80DFF3E031D1C2E0310480D593E1E
:100C480084000A168A150A200A128A11C9000A168F
:100C58008A150A200A128A11CA000A168A150A2059
:100C68000A128A11CB000A168A150A200A128A115A
:100C7800CC004C08AB004B08AA004A08A900490858
:100C8800A8005408AF005308AE005208AD00510840
:100C9800AC000A128A153C210A128A118312031326
:100CA8002B08D0002A08CF002908CE002808CD003C
:100CB8000A30F2000030F3005508C600C7014608A4
:100CC800F4004708F5000A168A15FA210A128A1153
:100CD800720883120313C80001300310C80DFF3EC9
:100CE800031D712E0310480D353E84000A168A151F
:100CF8000A200A128A11C9000A168A150A200A123D
:100D08008A11CA000A168A150A200A128A11CB000B
:100D18000A168A150A200A128A11CC004C08AB0060
:100D28004B08AA004A08A9004908A8005008AF00C3
:100D38004F08AE004E08AD004D08AC000A128A15E7
:100D48003C210A128A11831203132B08C5002A08B2
:100D5800C4002908C3002808C200A62F0B3055027A
:100D6800031CB72EB82E632F3F30AB000030AA000B
:100D78000030A9000030A8000A30A0000030A1000F
:100D88005508C600C7014608A2004708A3000A166E
:100D98008A157A220A128A11831203132008C800BE
:100DA80001300310C80DFF3E031DD52E0310480D5A
:100DB800593E84000A168A150A200A128A11C900A7
:100DC8000A168A150A200A128A11CA000A168A15F2
:100DD8000A200A128A11CB000A168A150A200A125A
:100DE8008A11CC004C08AF004B08AE004A08AD0091
:100DF8004908AC000A128A153C210A128A1183128A
:100E080003132B08D4002A08D3002908D200280885
:100E1800D1000A30F2000030F3005508C600C701BF
:100E28004608F4004708F5000A168A15FA210A123E
:100E38008A11720883120313C80001300310C80D09
:100E4800FF3E031D222F0310480D353E84000A166D
:100E58008A150A200A128A11C9000A168A150A2058
:100E68000A128A11CA000A168A150A200A128A1159
:100E7800CB000A168A150A200A128A11CC004C08DF
:100E8800AB004B08AA004A08A9004908A800540862
:100E9800AF005308AE005208AD005108AC000A126A
:100EA8008A153C210A128A11831203132B08C500E4
:100EB8002A08C4002908C3002808C200A62F3F300A
:100EC800AB000030AA000030A9000030A800550887
:100ED800C60001300310C60DFF3E031D6E2F031020
:100EE800460D353E84000A168A150A200A128A1110
:100EF800C7000A168A150A200A128A11C8000A169B
:100F08008A150A200A128A11C9000A168A150A20A7
:100F18000A128A11CA004A08AF004908AE004808F8
:100F2800AD004708AC000A128A153C210A128A1142
:100F3800831203132B08C5002A08C4002908C3001C
:100F48002808C2000800F801F51FAB2FAC2FB32FFB
:100F5800F409F509F40A0319F50AF801F80AF31F68
:100F6800B62FB72FBC2FF209F309F20A0319F30AB7
:100F7800720873040319C12FC22FF12FF701F70A62
:100F8800D02F01300310F20DF30DFF3E031DC62FC5
:100F98000130F6007608F707F31FD32FD42FC52F9B
:100FA80073087502031DDA2F72087402031CDD2F03
:100FB800DE2FE42F7208F4027308031CF503F50210
:100FC80001300310F30CF20CFF3E031DE52F013036
:100FD800F702031DF02FF12FD42F78080319F52FEE
:100FE800F62FFB2FF409F509F40A0319F50A750819
:080FF800F3007408F200080088
:10100400031083120313570D580DD9005908DF003C
:101014005F08031D0E280F2818280030D800003060
:10102400D7000030D6000030D5007D285508D900FF
:101034005608DA005708DB005808DC001F3003109C
:10104400DC0CDB0CDA0CD90CFF3E031D21285908FB
:10105400DD005D08DE00D717FF30D505FF30D6056B
:10106400FF30D7050030D8059630DF02DF1F3B285C
:101074003C2856285F08803A973E031842284328A4
:1010840044280F2801300310D80CD70CD60CD50CEB
:10109400FF3E031D45280130D9005908DF07031D11
:1010A4005428552844286D2820305F02031C5B28EF
:1010B4005C2868280F280130D9000310D50DD60DFF
:1010C400D70DD80DD90B5F280130DF025F08031D4F
:1010D4006C286D285D285E080319712872287D2804
:1010E400D509D609D709D809D50A0319D60A031987
:1010F400D70A0319D80A08000310740D750D83125A
:101104000313A0002008A6002608031D8A288B28A4
:1011140094280030F5000030F4000030F300003073
:10112400F2003B290310780D790DA0002008A500DA
:101134002508031D9E289F28A0288B28F417FF301C
:10114400F205FF30F305FF30F4050030F505F8171C
:10115400FF30F605FF30F705FF30F8050030F905DC
:101164000030A4000030A3000030A2000030A10031
:101174007F30A602A0302507A0002008A602203058
:10118400A0002008A5000130A0000310A10DA20DAD
:10119400A30DA40DA00BC72879087502031DDC2834
:1011A40078087402031DDC2877087302031DDC2809
:1011B40076087202031CDF28E028EF287608F20282
:1011C4007708031C770FF3027808031C780FF402E6
:1011D4007908031C790FF50221140130A0000310D3
:1011E400F20DF30DF40DF50DA00BF1280130A5025D
:1011F400031DFD28FE28C528A61F012902291C2934
:101204002608803A9F3E0318082909290A298B28B1
:1012140001300310A40CA30CA20CA10CFF3E031D6F
:101224000B290130A0002008A607031D1A291B2939
:101234000A29332920302602031C212922292E2998
:101244008B280130A0000310A10DA20DA30DA40D45
:10125400A00B25290130A6022608031D32293329B3
:1012640023292408F5002308F4002208F3002108A8
:10127400F2000800831203132B088039B0003008F1
:10128400B5002B08B0003007B1003108BB00AA1F1D
:101294004C294D294E293B143B0803195229532943
:1012A40062293B0A031D5729582960290030AB00E5
:1012B4000030AA000030A9000030A800AA176A294B
:1012C4000030AB000030AA000030A9000030A800B4
:1012D4002F088039B0003008B5062F08B000300759
:1012E400B1003108B600AE1F782979297A2936145D
:1012F400360803197E297F298E29360A031D83297E
:1013040084298C290030AF000030AE000030AD00DD
:101314000030AC00AE1796290030AF000030AE00AC
:101324000030AD000030AC00360803199A299B291F
:10133400A0293B08031D9F29A029A9290030AB003F
:101344000030AA000030A9000030A8009C2C280816
:10135400B0003008F2002E080A168A15A6210A12D7
:101364008A15730883120313C1007208C000400871
:10137400B000B101B201B3013308BA003208B900B8
:101384003108B8003008B7004108B000B101B2011B
:10139400B3013308BF003208BE003108BD00300875
:1013A400BC002908B0003008F2002D080A168A157E
:1013B400A6210A128A15730883120313C100720846
:1013C400C0004008B000B101B201B3013008B70752
:1013D400310803110318013E0319F129B807320833
:1013E40003110318013E0319F829B907330803113F
:1013F4000318013E0319FF29BA074108B000B101DF
:10140400B201B3013008BC07310803110318013ECF
:1014140003190D2ABD07320803110318013E0319ED
:10142400142ABE07330803110318013E03191B2AAB
:10143400BF072A08B0003008F2002C080A168A15E3
:10144400A6210A128A15730883120313C1007208B5
:10145400C0004008B000B101B201B3013008B707C1
:10146400310803110318013E0319392AB807320859
:1014740003110318013E0319402AB9073308031165
:101484000318013E0319472ABA074108B000B10105
:10149400B201B3013008BC07310803110318013E3F
:1014A4000319552ABD07320803110318013E031915
:1014B4005C2ABE07330803110318013E0319632A8B
:1014C400BF070830B0000310B70DB80DB90DBA0D41
:1014D400B00B652A2908B0003008F2002C080A165F
:1014E4008A15A6210A128A15730883120313C100F0
:1014F4007208C0004008B0004108B100B201B30155
:101504003008B707310803110318013E03198B2A69
:10151400B807320803110318013E0319922AB907C8
:10152400330803110318013E0319992ABA0728083E
:10153400B0003008F2002D080A168A15A6210A12F6
:101544008A15730883120313C1007208C00040088F
:10155400B0004108B100B201B3013008B707310847
:1015640003110318013E0319B82AB80732080311FE
:101574000318013E0319BF2AB907330803110318DE
:10158400013E0319C62ABA070830B0000310B70D8C
:10159400B80DB90DBA0DB00BC82A2808B000300830
:1015A400F2002C080A168A15A6210A128A15730855
:1015B40083120313C1007208C0004008B000410840
:1015C400B100B201B3013008B707310803110318A1
:1015D400013E0319EE2AB807320803110318013E2D
:1015E4000319F52AB907330803110318013E031937
:1015F400FC2ABA072908B0003008F2002E080A169F
:101604008A15A6210A128A15730883120313C100CE
:101614007208C0004008B0004108B100B201B30133
:101624003008BC07310803110318013E03191B2BB2
:10163400BD07320803110318013E0319222BBE070C
:10164400330803110318013E0319292BBF072A0885
:10165400B0003008F2002D080A168A15A6210A12D5
:101664008A15730883120313C1007208C00040086E
:10167400B0004108B100B201B3013008BC07310821
:1016840003110318013E0319482BBD073208031147
:101694000318013E03194F2BBE0733080311031827
:1016A400013E0319562BBF072A08B0003008F20088
:1016B4002E080A168A15A6210A128A15730883129F
:1016C4000313C1007208C0004008B0004108B10013
:1016D400B201B30108300310B00DB10DB20DB30D5A
:1016E400FF3E031D6D2B3008BC073108031103189E
:1016F400013E03197E2BBD07320803110318013E76
:101704000319852BBE07330803110318013E03197F
:101714008C2BBF073708B0003808B1003908B20075
:101724003A08B30018300310B30CB20CB10CB00C6F
:10173400FF3E031D952B3008BC0731080311031825
:10174400013E0319A62BBD07320803110318013EFD
:101754000319AD2BBE07330803110318013E031907
:10176400B42BBF070830B0000310B70DB80DB90D86
:10177400BA0DB00BB62B3B083607B000B101B10D62
:101784003008823EC00031080318013EFF3EC1000C
:10179400E82B0130B0000310BC0DBD0DBE0DBF0D14
:1017A400B00BCD2BBA1FD72BD82BD92B3C1401301F
:1017B400B0000310B70DB80DB90DBA0DB00BDB2B8B
:1017C400FF30C0070318C10AFF30C107BE1FEB2B4F
:1017D400EC2BCB2BB601BA1FF02BF12B0D2CFF30C9
:1017E4003705B000FF303805B100FF303905B200CD
:1017F4007F303A05B300330832043104300403194E
:10180400042C052C082CB601B60A0D2C3C1C0B2C00
:101814000C2C0D2C052C36080319112C122C432CDE
:101824000130BC07003003180130BD070030031835
:101834000130BE07003003180130BF073F1C232CC2
:10184400242C432C3C08B0003D08B1003E08B200F3
:101854003F08B3000130B400330DB30CB20CB10C2B
:10186400B00CB40B2E2C3308BF003208BE00310874
:10187400BD003008BC000130C0070318C10A0030A5
:10188400C1074108803AFF0080307F02031D4C2CC1
:10189400FF304002031C4F2C502C5B2C7F308312F2
:1018A4000313BF008030BE000030BD000030BC0018
:1018B400902C831203134108803AFF0080307F028A
:1018C400031D662C013040020318692C6A2C762C07
:1018D400003083120313BF000030BE000030BD008F
:1018E4000030BC00B501902C831203134008B000F3
:1018F4003008BB00FF30BC05FF30BD057F30BE059E
:101904000030BF053B1C872C882C892CBE173B0854
:10191400B0000310300CB1003108BF003508B0002E
:101924003008BF043F08AB003E08AA003D08A900E8
:101934003C08A800080083120313D400D41FA32C6E
:10194400A42C532ED409D40A5408803A123E031C02
:10195400AC2CAD2C972D0A30A0000030A100540807
:10196400F400F501F41BF5036430F2000030F300D9
:101974000A128A11A7270A128A15730883120313FD
:10198400A3007208A2000A168A1569240A128A158D
:10199400831203132008C60001300310C60DFF3E56
:1019A400031DCF2C0310460D593E84000A168A15D8
:1019B4000A200A128A15C7000A168A150A200A1272
:1019C4008A15C8000A168A150A200A128A15C9003F
:1019D4000A168A150A200A128A15CA004A08AB0098
:1019E4004908AA004808A9004708A8006430A000D4
:1019F4000030A1005408A200A301A21BA3030A16ED
:101A04008A1569240A128A15831203132008CB004D
:101A140001300310CB0DFF3E031D0B2D03104B0DA6
:101A24007D3E84000A168A150A200A128A15CC0003
:101A34000A168A150A200A128A15CD000A168A1572
:101A44000A200A128A15CE000A168A150A200A12DA
:101A54008A15CF004F08AF004E08AE004D08AD0008
:101A64004C08AC000A128A153C210A128A1583120A
:101A740003132B08D3002A08D2002908D100280810
:101A8400D0000A30F2000030F3005408F400F501ED
:101A9400F41BF5030A128A11A7270A128A15720881
:101AA40083120313C60001300310C60DFF3E031D4D
:101AB400562D0310460D353E84000A168A150A2059
:101AC4000A128A15C7000A168A150A200A128A15EC
:101AD400C8000A168A150A200A128A15C9000A16AD
:101AE4008A150A200A128A15CA004A08AB00490856
:101AF400AA004808A9004708A8005308AF005208E4
:101B0400AE005108AD005008AC000A128A153C2101
:101B14000A128A15831203132B08C5002A08C4006D
:101B24002908C3002808C200FF2F5408803A753ED4
:101B3400031C9D2D9E2D262E0A30F2000030F3004A
:101B44005408F400F501F41BF5030A128A11A727BF
:101B54000A128A15720883120313C6000130031097
:101B6400C60DFF3E031DB12D0310460D353E840006
:101B74000A168A150A200A128A15C7000A168A1537
:101B84000A200A128A15C8000A168A150A200A129F
:101B94008A15C9000A168A150A200A128A15CA006B
:101BA4004A08AB004908AA004808A9004708A80049
:101BB4000A30A0000030A1005408A200A301A21B17
:101BC400A3030A168A1569240A128A1583120313B9
:101BD4002008CB0001300310CB0DFF3E031DED2D7B
:101BE40003104B0D593E84000A168A150A200A1266
:101BF4008A15CC000A168A150A200A128A15CD0005
:101C04000A168A150A200A128A15CE000A168A159F
:101C14000A200A128A15CF004F08AF004E08AE0002
:101C24004D08AD004C08AC000A128A153C210A127A
:101C34008A15831203132B08C5002A08C400290837
:101C4400C3002808C200FF2F5408C6000130031047
:101C5400C60DFF3E031D292E0310460D353E84009C
:101C64000A168A150A200A128A15C7000A168A1546
:101C74000A200A128A15C8000A168A150A200A12AE
:101C84008A15C9000A168A150A200A128A15CA007A
:101C94004A08C5004908C4004808C3004708C200F0
:101CA400FF2F5408803A123E031C592E5A2E442FFB
:101CB4000A30A0000030A1005408F400F501F41B20
:101CC400F5036430F2000030F3000A128A11A727EA
:101CD4000A128A15730883120313A3007208A20060
:101CE4000A168A1569240A128A1583120313200816
:101CF400C60001300310C60DFF3E031D7C2E0310E9
:101D0400460D253E84000A168A150A200A128A15F1
:101D1400C7000A168A150A200A128A15C8000A166C
:101D24008A150A200A128A15C9000A168A150A2079
:101D34000A128A15CA004A08AB004908AA004808D2
:101D4400A9004708A8006430A0000030A10054088E
:101D5400A200A301A21BA3030A168A1569240A126E
:101D64008A15831203132008CB0001300310CB0D16
:101D7400FF3E031DB82E03104B0D493E84000A1686
:101D84008A150A200A128A15CC000A168A150A2016
:101D94000A128A15CD000A168A150A200A128A1513
:101DA400CE000A168A150A200A128A15CF004F0897
:101DB400AF004E08AE004D08AD004C08AC000A124E
:101DC4008A153C210A128A15831203132B08D300A7
:101DD4002A08D2002908D1002808D0000A30F200CD
:101DE4000030F3005408F400F501F41BF5030A1263
:101DF4008A11A7270A128A15720883120313C600D0
:101E040001300310C60DFF3E031D032F0310460DC2
:101E1400013E84000A168A150A200A128A15C70090
:101E24000A168A150A200A128A15C8000A168A1583
:101E34000A200A128A15C9000A168A150A200A12EB
:101E44008A15CA004A08AB004908AA004808A90034
:101E54004708A8005308AF005208AE005108AD006F
:101E64005008AC000A128A153C210A128A15831202
:101E740003132B08C5002A08C4002908C300280836
:101E8400C200FF2F5408803A753E031C4A2F4B2F83
:101E9400D32F0A30F2000030F3005408F400F501A7
:101EA400F41BF5030A128A11A7270A128A1572086D
:101EB40083120313C60001300310C60DFF3E031D39
:101EC4005E2F0310460D013E84000A168A150A206F
:101ED4000A128A15C7000A168A150A200A128A15D8
:101EE400C8000A168A150A200A128A15C9000A1699
:101EF4008A150A200A128A15CA004A08AB00490842
:101F0400AA004808A9004708A8000A30A000003029
:101F1400A1005408A200A301A21BA3030A168A1558
:101F240069240A128A15831203132008CB00013096
:101F34000310CB0DFF3E031D9A2F03104B0D253EBE
:101F440084000A168A150A200A128A15CC000A1679
:101F54008A150A200A128A15CD000A168A150A2043
:101F64000A128A15CE000A168A150A200A128A1540
:101F7400CF004F08AF004E08AE004D08AD004C082E
:101F8400AC000A128A153C210A128A158312031323
:101F94002B08C5002A08C4002908C3002808C20069
:101FA400FF2F5408C60001300310C60DFF3E031D69
:101FB400D62F0310460D013E84000A168A150A2006
:101FC4000A128A15C7000A168A150A200A128A15E7
:101FD400C8000A168A150A200A128A15C9000A16A8
:101FE4008A150A200A128A15CA004A08C500490837
:101FF400C4004808C3004708C200080000300A169D
:102004008A151F210A168A1101300A168A151F2102
:102014000A168A1108000A168A15CF210A168A118F
:102024008316031388010A168A15C0220A168A1118
:102034000A168A1100200A168A11F601F60A0130DE
:102044000A168A155D210A168A119F30F500803020
:10205400F6000A168A1534220A168A1107308312EA
:102064000313EF006F08F60001300A168A155D218C
:102074000A168A11A330F5008030F6000A168A1574
:1020840034220A168A110E3083120313EF006F08EC
:10209400F60001300A168A155D210A168A11A73046
:1020A400F5008030F6000A168A1534220A168A11C1
:1020B4000A168A15D2240A168A110A168A155A256E
:1020C4000A168A11913083120313EF006F088316E6
:1020D4000313A8005308AC005208AB005108AA002F
:1020E4005008A9004F08B0004E08AF004D08AE00DC
:1020F4004C08AD00D7300A168A11FC240A168A113E
:10210400F601F60A02300A168A155D210A168A11AA
:10211400D730F5000030F6000A168A1534220A1664
:102124008A115A280A128A110C28831203134908A7
:102134008039CA004A08D3004908CA004A07CB00BC
:102144004B08DA00C81FA728A828A9285A145A0837
:102154000319AD28AE28BE285A0A031DB228B32895
:10216400BB280030C9000030C8000030C700003070
:10217400C600C817C901C6280030C9000030C8000D
:102184000030C7000030C60045088039CA004A083C
:10219400D3064508CA004A07CB004B08DB00C41F1E
:1021A400D428D528D6285B145B080319DA28DB2841
:1021B400EB285B0A031DDF28E028E8280030C5006F
:1021C4000030C4000030C3000030C200C417C50191
:1021D400F3280030C5000030C4000030C3000030D4
:1021E400C2004508440443044204031DFA28FB28A2
:1021F40014290030C9000030C8000030C700003086
:10220400C6008030C8047F30C9045308CA004A0895
:10221400C9044908C5004808C4004708C300460863
:10222400C200732A5A08031D1829192922290030CB
:10223400C5000030C4000030C3000030C200732A5F
:102244005A08CA00CB014B08CD005B084A02CC00F7
:10225400031CCD034C087F3ED4004D080318013EF7
:10226400003ED5004908D2004808D1004708D000F4
:102274004608CF000030C9000030C8000030C70055
:102284000030C6000030D9000030D8000030D7003C
:102294000030D600DB0198295B0803195229532921
:1022A40073290130CA000310CF0DD00DD10DD20D0A
:1022B400CA0B55290130CA000310C60DC70DC80D3D
:1022C400C90DCA0B5E29D91F682969296A294614D0
:1022D4000130CA000310D60DD70DD80DD90DCA0B85
:1022E4006C2945085202031D812944085102031D2B
:1022F400812943085002031D812942084F02031C0F
:1023040084298529942959174208CF024308031CBC
:10231400430FD0024408031C440FD1024508031C98
:10232400450FD2020130CA004A08DB071A305B02AB
:10233400031C9D299E294E295208510450044F0420
:102344000319A529A629C5295614C5290130CA008F
:102354000310C60DC70DC80DC90DCA0BAA29D91F74
:10236400B429B529B62946140130CA000310D60D84
:10237400D70DD80DD90DCA0BB829FF30D4070318CF
:10238400D50AFF30D507C81FC829C929A829DB01E8
:10239400D91FCD29CE29EA29FF305605CA00FF30BE
:1023A4005705CB00FF305805CC007F305905CD00D0
:1023B4004D084C044B044A040319E129E229E52998
:1023C400DB01DB0AEA29461CE829E929EA29E22992
:1023D4005B080319EE29EF29202A0130C6070030D3
:1023E40003180130C707003003180130C807003054
:1023F40003180130C907491C002A012A202A46086B
:10240400CA004708CB004808CC004908CD00013079
:10241400CE004D0DCD0CCC0CCB0CCA0CCE0B0B2A24
:102424004D08C9004C08C8004B08C7004A08C6003C
:102434000130D4070318D50A0030D5075508803A6F
:10244400FF0080307F02031D292AFF305402031C41
:102454002C2A2D2A3B2AFF3083120313D400003088
:10246400D5000030C9000030C8000030C70000307B
:10247400C600831203135508803AFF0080307F02A0
:10248400031D462A013054020318492A4A2A572AAE
:1024940083120313D401D5010030C9000030C800F1
:1024A4000030C7000030C600D30183120313540860
:1024B400CA004A08DA005A1C602A612A632AC8172B
:1024C400672A7F30CA004A08C8055A08CA000310A0
:1024D4004A0CCB004B08C9005308CA004A08C90477
:1024E4000B2908008312031359088039DE005E08A3
:1024F400E6005908DE005E07DF005F08E800D81F29
:10250400842A852A862A6814680803198A2A8B2A49
:102514009B2A680A031D8F2A902A982A0030D90022
:102524000030D8000030D7000030D600D817D901C9
:10253400A32A0030D9000030D8000030D700003082
:10254400D6005D088039DE005E08E700670866068D
:102554000319AD2AAE2AAF2A66175D08DE005E07AE
:10256400DF005F08E700DC1FB82AB92ABA2A67141B
:1025740067080319BE2ABF2ACF2A670A031DC32A84
:10258400C42ACC2A0030DD000030DC000030DB003F
:102594000030DA00DC17DD01D72A0030DD0000301E
:1025A400DC000030DB000030DA0068086702031842
:1025B400DC2ADD2A212B661FE02AE12AE52A803065
:1025C400DE005E08E6066808DE005E08E9006708CB
:1025D400DE005E08E8006908DE005E08E7005608D1
:1025E400DE005E08E9005A08DE005E08D6006908CD
:1025F400DE005E08DA005708DE005E08E9005B08CA
:10260400DE005E08D7006908DE005E08DB005808BB
:10261400DE005E08E9005C08DE005E08D800690898
:10262400DE005E08DC005908DE005E08E9005D0893
:10263400DE005E08D9006908DE005E08DD00E901FD
:102644006708DE00DF015F08E10068085E02E00061
:10265400031CE1036108803AFF0080307F02031D00
:10266400352B1A306002031C382B392B762B83123E
:1026740003135908580457045604031D422B442BD2
:102684000130452B0030DE005E08E9000030D9003F
:102694000030D8000030D7000030D6006708DE00D4
:1026A4005E08E8007E2B691C582B592B622B6908A5
:1026B400DE0003105E0C0138DF005F08E900642BC4
:1026C4000310E90C561C672B682B692BE9170130A2
:1026D400DE00590DD90CD80CD70CD60CDE0B6B2BA5
:1026E4000130DE005E08E8078312031367086802FE
:1026F400031C7D2B7E2B552B661B812B822BCD2B14
:102704006808031D862B872B902B0030D9000030DE
:10271400D8000030D7000030D600FB2C5A08D6076A
:102724005B0803110318013E0319992BD7075C08B2
:1027340003110318013E0319A02BD8075D080311E8
:102744000318013E0319A72BD907591CAA2BAB2B3D
:10275400812C691CAE2BAF2BB82B6908DE0003104B
:102764005E0C0138DF005F08E900BA2B0310E90CA6
:10277400561CBD2BBE2BBF2BE9170130DE00590DB3
:10278400D90CD80CD70CD60CDE0BC12B0130DE00D3
:102794005E08E807812C5908803AFF005D08803AFA
:1027A4007F02031DDF2B5C085802031DDF2B5B082F
:1027B4005702031DDF2B5A0856020318E22BE32BA2
:1027C4003B2CFF30DE00FF30DF00FF30E000FF3045
:1027D400E1005A08E2005B08E3005C08E4005D08DD
:1027E400E5005608E2025708031C570FFA2BFB2B8F
:1027F400E3025808031C580F002C012CE40259086A
:10280400031C590F062C072CE5026208DE07630837
:102814000318630F0E2C0F2CDF0764080318640FD2
:10282400142C152CE00765080318650AE1076108F4
:10283400D9006008D8005F08D7005E08D600803051
:10284400DE005E08E606E909E90A6908031D2B2C87
:102854002C2C492C0130D607003003180130D7073F
:10286400003003180130D807003003180130D907AD
:10287400492C5A08D6025B08031C5B0FD7025C087C
:10288400031C5C0FD8025D08031C5D0FD9025908B4
:10289400580457045604031D502C512C7D2C6908F0
:1028A400031D552C562C7D2C0030D9000030D80047
:1028B4000030D7000030D600FB2C0130DE000310BE
:1028C400D60DD70DD80DD90DDE0B612CE91F6B2C5D
:1028D4006C2C6D2C5614691C702C712C742C0314E4
:1028E400E90D762C0310E90D680803197A2C7B2C6A
:1028F4007D2C0130E802D81F802C812C5F2CE7014D
:10290400E91F852C862C942C69087F3903198B2C9C
:102914008C2C8F2CE701E70A942C561C922C932CB8
:10292400942C8C2C67080319982C992CCD2C0130ED
:10293400D607003003180130D707003003180130E0
:10294400D807003003180130D907591CAA2CAB2C26
:10295400CD2C5608DE005708DF005808E00059085F
:10296400E1000130E200610DE10CE00CDF0CDE0C53
:10297400E20BB52C6108D9006008D8005F08D700C5
:102984005E08D600680A0319C82CC92CCD2C013066
:10299400DE005E08E807680A0319D12CD22CD72C74
:1029A4006808031DD62CD72CE52C0030D900003044
:1029B400D8000030D7000030D6006808031DE32C8F
:1029C400E42CE52CE601681CE82CE92CEB2CD81748
:1029D400EF2C7F30DE005E08D8056808DE000310A7
:1029E4005E0CDF005F08D900E61FF92CFA2CFB2CE3
:1029F400D917080083160313C800A93083120313E0
:102A0400EA006A0883160313B5000A128A11792DA5
:102A140025304B0603190F2D102D242D4B0883123E
:102A24000313EA0083160313480884008312031374
:102A34006A08831380000130EA006A0883160313CE
:102A4400C807072DBC01BD01BA01BB0128088400D9
:102A54000A168A150A200A168A110A168A15E3200C
:102A64000A168A11031C372D382D842D831603135F
:102A7400BC01BD010A30F2000030F30083160313D9
:102A84003D08F5003C08F4000A168A1581210A164F
:102A94008A11730883160313BD007208BC0028084A
:102AA40084000A168A150A200A168A11D03E831257
:102AB4000313EA00FF3003180030EB006A088316A2
:102AC4000313BC070318BD0A831203136B08831690
:102AD4000313BD07013083120313EA006A08831647
:102AE4000313A807280884000A168A150A200A1660
:102AF4008A110A168A15E3200A168A110318832DEF
:102B0400842D3C2D83160313280884000A168A1585
:102B14000A200A168A112E3A031D912D922DE72DB3
:102B24003B17013083120313EA006A088316031368
:102B3400A807C901CA01D62D0A30F2000030F300FB
:102B4400831603134A08F5004908F4000A168A1587
:102B540081210A168A11730883160313CA007208A6
:102B6400C900280884000A168A150A200A168A1140
:102B7400D03E83120313EA00FF3003180030EB0049
:102B84006A0883160313C9070318CA0A83120313B6
:102B94006B0883160313CA07013083120313EA0078
:102BA4006A0883160313A807280884000A168A15DE
:102BB4000A200A168A110A168A15E3200A168A11AF
:102BC4000318E52DE62D9E2DEF2DC901CA013B16F4
:102BD400EF2D831603133B150D2E013083160313BB
:102BE400A807FF30280784000A168A150A200A1647
:102BF4008A11CB0083120313EA00EB016B08003A3D
:102C04000319052E072D6A08003A0319FD2F663AA9
:102C14000319EB2D072D00303A0583120313EA0044
:102C24000730831603133B0583120313EB006A0872
:102C34006B0403191E2E212E0A128A11762C831678
:102C440003133B1E262E272E2B2E0630C9000030E0
:102C5400CA003508840083130008C400840A0008ED
:102C6400C500840A0008C600840A0008C7000430AE
:102C740083120313EA006A0883160313B50747088F
:102C8400F5004608F4004508F3004408F20000305B
:102C9400F9000030F8000030F7000030F6000A16A2
:102CA4008A15E3250A168A110318592E5A2E772EEF
:102CB400831603134708F5004608F4004508F3009B
:102CC4004408F2000A168A15D8200A168A117508D3
:102CD40083160313C7007408C6007308C50072087E
:102CE400C4000330BA040030BB0483160313C201CA
:102CF400C3014708F5004608F4004508F3004408FA
:102D0400F2000030F9000030F8000030F700003025
:102D1400F6000A168A150B230A168A110318932E35
:102D2400942E942F031083160313460D470D823EF1
:102D3400C200FF3003180030C300FF30C20703187D
:102D4400C30AFF30C3070330F2000030F300430826
:102D5400F5004208F4000A168A1581210A168A1120
:102D6400730883160313C3007208C2000A30831267
:102D74000313A0000030A100831603134308831239
:102D84000313A30083160313420883120313A20040
:102D94000A168A1569240A168A1183120313210854
:102DA40083160313C300831203132008831603132B
:102DB400C200C31FDE2EDF2EE52EFF30C20703182C
:102DC400C30AFF30C3074203FF3A0A128A159D243F
:102DD4000A168A1183120313450883160313C100CC
:102DE40083120313440883160313C00083120313CE
:102DF400430883160313BF00831203134208831688
:102E04000313BE00470883120313AB008316031396
:102E1400460883120313AA0083160313450883127A
:102E24000313A90083160313440883120313A80091
:102E340083160313410883120313AF00831603138D
:102E4400400883120313AE00831603133F08831252
:102E54000313AD00831603133E0883120313AC005F
:102E64000A128A153C210A168A11831203132B08AD
:102E740083160313C100831203132A088316031352
:102E8400C00083120313290883160313BF0083129F
:102E94000313280883160313BE004108F5004008F5
:102EA400F4003F08F3003E08F2003F30F9008030A0
:102EB400F8000030F7000030F6000A168A15E32502
:102EC4000A168A110318672F682F712FFF30831693
:102ED4000313C2070318C30AFF30C307942F8316D2
:102EE40003134108F5004008F4003F08F3003E08CE
:102EF400F2004130F9002030F8000030F7000030D3
:102F0400F6000A168A15E3250A168A11031C8B2F6C
:102F14008C2F942F013083160313C2070318C30A9E
:102F24000030C307831603134A08803AFF00803039
:102F34007F02031D9F2F0D3049020318A22FA32FD8
:102F4400EA2F8316031349080A128A119A250A16CE
:102F54008A11831203134508D9004408D800430892
:102F6400D7004208D60083160313470883120313BD
:102F7400DD0083160313460883120313DC00831653
:102F84000313450883120313DB0083160313440859
:102F940083120313DA000A168A1174220A168A119C
:102FA40083120313590883160313C70083120313F0
:102FB400580883160313C600831203135708831695
:102FC4000313C50083120313560883160313C400A6
:102FD400831603134308803AFF0080307F02031DE9
:102FE400F52F0A3042020318FA2F0A128A111E28FA
:102FF4000A128A116F280A128A11932DFF1B0A28BC
:1030040083137F1883170008840A0319FF0A080032
:1030140018308A000408840A82070034003400341B
:1030240080343F34003400342034413400340034DC
:10303400C8344234003400347A34443400344034E4
:103044001C34463400345034C334473400342434FC
:10305400743449348034963418344B342034BC34BA
:10306400BE344C3428346B346E344E34F934023468
:1030740015345034EC347834AD346034CA34F2341A
:10308400493471340034003480343F34CD34CC348A
:10309400CC343D340A34D73423343C346F341234C2
:1030A40083343A341734B734D1343834AC34C53477
:1030B40027343734BD343734863435349534BF340B
:1030C400D63433347734CC342B3432345F347034E4
:1030D40089343034FF34E634DB342E340834E534B8
:1030E4003C341E3460344234A2340D340134003490
:1030F400003400340A3400340034003464340034BE
:1031040000340034E83403340034003410342734F9
:1031140000340034A0348634013400344034423462
:103124000F34003480349634983400340034E1345D
:10313400F53405340034CA349A343B3425343134FC
:103144002E343234663456342034253431342E341B
:103154003234663456340034533431343A3400341F
:10316400533432343A340034533433343A3400343C
:10318000F2007208831203138800080064008001B3
:10319000840A0406031900340406C72883120313A3
:1031A0001E08F300730883160313D60056080800A0
:1031B00075087404730472040319DF28E028E228F8
:1031C0008030F5060800F300F2013A30730203186C
:1031D000EA28EB28F32830307302031CF028F1288A
:1031E000F328F201F20A720C0800831203138C1EFA
:1031F000FA28FB2802298C121A08013E990083162E
:103200000313180871088A00700E8300FE0E7E0EEC
:103210000900F40083120313091474080A168A15AE
:10322000C0200A168A158312031389141A30F3007A
:10323000F30B182900008312031389100800F5000E
:1032400083120313091075080A168A15C0200A167E
:103250008A158312031389140B30F4006230F300D3
:10326000F30B3029F40B302900008312031389106B
:1032700008004F29831203139F121F129F111F1161
:103280005C29831203139F121F129F111F155C29C3
:10329000831203139F121F129F111F115C297308C1
:1032A000003A0319542948297208003A03193A29A7
:1032B000013A0319412948290800F8007803031D41
:1032C000622963296F2976087F3EF7007708F900A5
:1032D00079080A168A151F210A168A1580290230D4
:1032E0007806031D7429752980297608BF3EF700EA
:1032F0007708F90079080A168A151F210A168A1517
:103300000800F601F701721C862987298D297408A7
:10331000F6070318F70A7508F70701300310F40DD4
:10332000F50DFF3E031D8E2901300310F30CF20C46
:10333000FF3E031D952972087304031DA029A129CE
:1033400083297708F3007608F2000800831203133C
:10335000A400A001A1017208F400F5017408A20004
:103360007508A300241CB529B629BC292208A0078A
:103370000318A10A2308A10701300310A20DA30D11
:10338000FF3E031DBD290310A40C2408031DC929F9
:10339000CA29B2292108F3002008F20008000330EE
:1033A00083160317880089010330831603138500F1
:1033B0008601880189018312031385018601880132
:1033C0008901831603139F010C13831203130C133B
:1033D0008316031381018B010C3099009813181385
:1033E00098161812181198108312031398171813AF
:1033F00018160800720873040319FF29002A2F2ADF
:10340000F701F70A0E2A01300310F20DF30DFF3E0B
:10341000031D042A0130F6007608F707F31F112A6E
:10342000122A032A73087502031D182A72087402EF
:10343000031C1B2A1C2A222A7208F4027308031C8C
:10344000F503F50201300310F30CF20CFF3E031DEF
:10345000232A0130F702031D2E2A2F2A122A75086B
:10346000F3007408F200080083120313A001A10105
:103470005D2A20087507F8007608F7000318F70A98
:10348000A01F432AF7037708F90079088312031372
:10349000FF00780884000A168A1500200A168A158B
:1034A0000A168A1509210A168A1501308312031398
:1034B000A0070318A10A0030A10720087507F8002B
:1034C0007608F7000318F70AA01F672AF7037708A2
:1034D000F900790883120313FF00780884000A16A4
:1034E0008A1500200A168A15003A031D782A792ABF
:1034F000392A080083120313A501A601200821041C
:103500000319832A842ABB2AA401A40A922A01301F
:103510000310A00DA10DFF3E031D882A0130F80005
:103520007808A407A11F952A962A872A013003103C
:10353000A50DA60DFF3E031D972A21082302031D9A
:10354000A32A20082202031CA62AA72AAE2A2008A2
:10355000A2022108031CA303A302251401300310B7
:10356000A10CA00CFF3E031DAF2A0130A402031DD5
:10357000BA2ABB2A962A2608A1002508A00008001E
:1035800000300A168A15C0200A168A153430F70052
:10359000F130F600F60BCA2AF70BCA2ACF2A3030D0
:1035A0000A168A151F210A168A150D30F700FB30FE
:1035B000F600F60BD92AF70BD92ADE2A30300A1684
:1035C0008A151F210A168A151D30F7009130F60062
:1035D000F60BE82AF70BE82A30300A168A151F2165
:1035E0000A168A1538300A168A151F210A168A15F6
:1035F0000C300A168A151F210A168A1501300A1680
:103600008A151F210A168A1506300A168A151F21E7
:103610000A168A1508000030720583120313A000F1
:1036200000307305A10080307405A2007F3075055D
:10363000A3002308220421042004031D202B212B96
:10364000292B0030F5000030F4000030F30000308A
:10365000F20000307605A00000307705A100803030
:103660007805A2007F307905A300230822042104F5
:103670002004031D3C2B3D2B452B0030F90000306E
:10368000F8000030F7000030F60079087506031DD9
:10369000532B78087406031D532B77087306031DFC
:1036A000532B760872060319562B572B592B0310F0
:1036B0005A2B03140800803083160313A30627082F
:1036C00083120313D90083160313260883120313EE
:1036D000D80083160313250883120313D70083161B
:1036E0000313240883120313D6008316031323083D
:1036F00083120313DD0083160313220883120313BE
:10370000DC0083160313210883120313DB008316E6
:103710000313200883120313DA000A168A11742295
:103720000A168A1583120313590883160313A3007C
:1037300083120313580883160313A2008312031382
:10374000570883160313A100831203135608831628
:103750000313A000080075087404730472040319AD
:10376000B22BB32BF82B83120313A101A10AC52B93
:103770000130A0000310F20DF30DF40DF50DA00BB8
:10378000BA2B0130A0002008A107F51FC82BC92BB8
:10379000B82B75087902031DD72B74087802031D16
:1037A000D72B73087702031DD72B72087602031CF0
:1037B000DA2BDB2BE92B7208F6027308031C730F5C
:1037C000F7027408031C740FF8027508031C750FC8
:1037D000F90201300310F50CF40CF30CF20CFF3E6F
:1037E000031DEA2B0130A102031DF72BF82BC92B77
:1037F0007908F5007808F4007708F3007608F200FD
:103800000800003083120313A4000030A30000302E
:10381000A2000030A1007508740473047204031937
:10382000122C132C602CA501A50A232C0130A0001A
:103830000310F20DF30DF40DF50DA00B182C013053
:10384000A0002008A507F51F262C272C162C0130D8
:10385000A0000310A10DA20DA30DA40DA00B292CF7
:1038600075087902031D3E2C74087802031D3E2C56
:1038700073087702031D3E2C72087602031C412C4C
:10388000422C512C7208F6027308031C730FF702C6
:103890007408031C740FF8027508031C750FF902F5
:1038A000211401300310F50CF40CF30CF20CFF3E64
:1038B000031D522C0130A502031D5F2C602C272C08
:1038C0002408F5002308F4002208F3002108F20080
:1038D000080083120313A501A11F6F2C702C772CF5
:1038E000A009A109A00A0319A10AA501A50AA31FFD
:1038F0007A2C7B2C842CA209A309A20A0319A30AFF
:103900000130F9007908A506A601A70120082104C5
:1039100003198B2C8C2CC32CA401A40A9A2C0130E3
:103920000310A00DA10DFF3E031D902C0130F900E6
:103930007908A407A11F9D2C9E2C8F2C0130031009
:10394000A60DA70DFF3E031D9F2C21082302031D7A
:10395000AB2C20082202031CAE2CAF2CB62C200866
:10396000A2022108031CA303A302261401300310A2
:10397000A10CA00CFF3E031DB72C0130A402031DB7
:10398000C22CC32C9E2C25080319C72CC82CCD2C67
:10399000A609A709A60A0319A70A2708A10026084D
:1039A000A00008000030F200F3000A168A15392141
:1039B0000A168A15831203131F179F131F14193039
:1039C00083120313DC00DC0BE32CE62C83120313BD
:1039D0009F14542D1E08DC005C08F20083160313AC
:1039E0001E080A168A15CE200A168A15831203139A
:1039F000DD005D08FB004330C5007F30C4000030AF
:103A0000C3000030C2004030AB00A030AA0000303C
:103A1000A9000030A8007B08DC00DD01DE01DF0129
:103A20005F08F5005E08F4005D08F3005C08F20032
:103A300001300A168A1587260A168A157508831218
:103A40000313AF007408AE007308AD007208AC0039
:103A50000A128A153C210A168A15831203132B08B1
:103A6000C9002A08C8002908C7002808C6000A1685
:103A70008A1197200A168A158312031345088316A4
:103A80000313D30083120313440883160313D200D5
:103A900083120313430883160313D1008312031305
:103AA000420883160313D00083129F18582D592DF6
:103AB000EA2C08000130F2000030F3000A168A15E3
:103AC00039210A168A15831203131F179F131F1417
:103AD000193083120313DC00DC0B6C2D6F2D831265
:103AE00003139F14DD2D1E08DC005C08F200831612
:103AF00003131E080A168A15CE200A168A15831289
:103B00000313DD005D08FA004330C5007F30C400B8
:103B10000030C3000030C2004030AB00A030AA002B
:103B20000030A9000030A8007A08DC00DD01DE01C9
:103B3000DF015F08F5005E08F4005D08F3005C0833
:103B4000F20001300A168A1587260A168A157508AA
:103B500083120313AF007408AE007308AD0072083F
:103B6000AC000A128A153C210A168A158312031327
:103B70002B08C9002A08C8002908C7002808C60061
:103B80000A168A1197200A168A158312031345080C
:103B900083160313CF008312031344088316031301
:103BA000CE0083120313430883160313CD00831240
:103BB0000313420883160313CC0083129F18E12DD0
:103BC000E22D732D08000030720583120313A0004C
:103BD00000307305A10080307405A2007F307505A8
:103BE000A3002308220421042004031DF82DF92D2D
:103BF000012E0030F5000030F4000030F3000030FA
:103C0000F20000307605A00000307705A10080307A
:103C10007805A2007F307905A3002308220421043F
:103C20002004031D142E152E1D2E0030F900003027
:103C3000F8000030F7000030F600F51F202E212E8E
:103C4000452E0030A0000030A1000030A2008030DE
:103C5000A3007208A0027308031C730F302E312ECC
:103C6000A1027408031C740F362E372EA2027508A9
:103C7000031C750F3C2E3D2EA3022308F5002208DD
:103C8000F4002108F3002008F200F91F482E492E05
:103C90006D2E0030A0000030A1000030A200803066
:103CA000A3007608A0027708031C770F582E592E20
:103CB000A1027808031C780F5E2E5F2EA2027908FD
:103CC000031C790F642E652EA3022308F900220835
:103CD000F8002108F7002008F6008030F506803053
:103CE000F90679087502031D7F2E78087402031DFA
:103CF0007F2E77087302031D7F2E76087202031849
:103D0000822E832E852E0310862E03140800831224
:103D10000313A000200803198E2E8F2EA32EF51F4B
:103D2000922E932EA32E7209A2007309A300740988
:103D3000A4007509A500A20A0319A30A0319A40A7D
:103D40000319A50AAB2E7508A5007408A400730812
:103D5000A3007208A2007508740473047204031DA2
:103D6000B22EB32EBC2E0030F5000030F40000302F
:103D7000F3000030F200422F9630F6007608A100E2
:103D8000CE2E0130F6007608A10701300310A50CF5
:103D9000A40CA30CA20CFF3E031DC62EFE3025056D
:103DA000031DD32ED42EC12EF02E0130F60076083E
:103DB000A1070130A207003003180130A30700302B
:103DC00003180130A407003003180130A5070130A3
:103DD0000310A50CA40CA30CA20CFF3E031DE82E9F
:103DE000FF302505031DF52EF62ED52E022F0130AE
:103DF000A1020130F6000310A20DA30DA40DA50D24
:103E0000F60BFB2EA41B052F062F0C2F02302102D0
:103E100003180B2F0C2FF72E21180F2F102F182FF0
:103E2000FF30A205FF30A3057F30A405FF30A505B4
:103E30000310A10C2108F600F701F801F901183070
:103E40000310F60DF70DF80DF90DFF3E031D202FA1
:103E50007608A2047708A3047808A4047908A504C6
:103E600020080319342F352F3A2FF51F382F392FFB
:103E70003A2FA5172508F5002408F4002308F300BD
:103E80002208F2000800720883120313A0007308CE
:103E9000A1007408A2000310210D220DA300230825
:103EA000A9002908031D552F562F5F2F0030F5005C
:103EB0000030F4000030F3000030F200FF2F7608ED
:103EC000A0007708A1007808A2000310210D220DA0
:103ED000A3002308A8002808031D6F2F702F712F3F
:103EE000562FF317FF30F205FF30F3050030F405CD
:103EF000F717FF30F605FF30F7050030F805003002
:103F0000A7000030A6000030A5000030A4007F30DC
:103F1000A90298302807A0002008A9021830A000A4
:103F20002008A8000130A0000310A40DA50DA60DC7
:103F3000A70DA00B942F78087402031DA52F7708F6
:103F40007302031DA52F76087202031CA82FA92F48
:103F5000B42F7608F2027708031C770FF302780873
:103F6000031C780AF402241401300310F20DF30D3F
:103F7000F40DFF3E031DB52F0130A802031DC12F14
:103F8000C22F922FA91FC52FC62FE02F2908803AD4
:103F9000973E0318CC2FCD2FCE2F562F0130031074
:103FA000A70CA60CA50CA40CFF3E031DCF2F0130BF
:103FB000A0002008A907031DDE2FDF2FCE2FF72F2B
:103FC00018302902031CE52FE62FF22F562F01305F
:103FD000A0000310A40DA50DA60DA70DA00BE92FA1
:103FE0000130A9022908031DF62FF72FE72F270814
:103FF000F5002608F4002508F3002408F200080064
:04400E00D223FF3F7B
:00000001FF
