:020000040000FA
:060000000A128A11E12F33
:1003CC00F000700883120313880008000A128A11C7
:1003DC001D220A128A1183160313911408000A12A3
:1003EC008A111D220A128A11831603131114080094
:1003FC000A128A111D220A128A118316031311156F
:10040C0008000A128A111D220A128A11700883121E
:10041C00031393000800F00083160313981C172A8B
:10042C00182A122A700883120313990008008316E5
:10043C0003131419222A232A1D2A11081F39031DFC
:10044C00282A292A1D2A080000300A128A118D2216
:10045C000A128A1101300A128A118D220A128A118B
:10046C0008007E088A007F0882000A128A1137224F
:10047C000A128A118000840A04087D0603190034CC
:10048C00FF0A0319FE0A3B2AF300F201731C4F2AE0
:10049C00502A542A7008F1007108F2070310F00D6D
:1004AC000310F30C7308031D5C2A5D2A4C2A720896
:1004BC000800F20083120313091472080A128A113D
:1004CC00E6210A128A118312031389141A30F100DF
:1004DC00F10B6E2A00008312031389100800F70039
:1004EC000F307705F4000A30F5007508F000770836
:1004FC00F60004300310F60CFF3E031D802A76082C
:10050C000A128A114A220A128A1174070800F3008F
:10051C0083120313091073080A128A11E6210A12B6
:10052C008A118312031389140B30F2006230F1002C
:10053C00F10B9E2AF20B9E2A0000831203138910E2
:10054C000800F300F201B92A72087307F100710870
:10055C00840000080A128A1111220A128A11013031
:10056C00F1007108F20772087307F100710884003A
:10057C0083130008031DC32AC42AAA2A0800443482
:10058C004134543445343A342034203420342F341C
:10059C00203420342F34323430342034203400349E
:1005AC00543449344D3445343A34203420342034D6
:1005BC003A34203420343A34203420340034F600D9
:1005CC00F401F501FA2A74087607F3007308840025
:1005DC0000080A128A115F220A128A110130F407EC
:1005EC000318F50A0030F50774087607F300730852
:1005FC00840083130008031D042B052BE92A080033
:10060C00F6007603031D0B2B0C2B182B74087F3E66
:10061C00F5007508F70077080A128A118D220A1264
:10062C008A11292B02307606031D1D2B1E2B292B1C
:10063C007408BF3EF5007508F70077080A128A1196
:10064C008D220A128A1108000A128A111D220A121E
:10065C008A118316031391150A128A111D220A128C
:10066C008A11831203131308F200F3017208F400C9
:10067C007308F5000A128A111D220A128A117003DE
:10068C007104031D4A2B4B2B4F2B83160313911212
:10069C00522B83160313911611167508F10074086A
:1006AC00F0000800831603178801890183160313D1
:1006BC008501860187110713871788018901831229
:1006CC000313850186018701880189010030D00060
:1006DC000130CF008630CE00A030CD000A128A1136
:1006EC0086230A128A11831603139A010C3099007F
:1006FC009816181283120313981718169A010800EB
:10070C002830831203139400831603139101831270
:10071C0003134D08D1004E08D2004F08D3005008E7
:10072C00D40002300310D10DD20DD30DD40DFF3EE9
:10073C00031D982B5408F3005308F2005208F100E3
:10074C005108F0000030F7007A30F6001230F50056
:10075C000030F4000A128A1162240A128A117008FD
:10076C00FF3E8316031393009401871507160800A8
:10077C0000300A128A11E6210A128A113430F5006F
:10078C00F130F400F40BC82BF50BC82BCD2B30300B
:10079C000A128A118D220A128A110D30F500FB30D3
:1007AC00F400F40BD72BF50BD72BDC2B30300A12C3
:1007BC008A118D220A128A111D30F5009130F40035
:1007CC00F40BE62BF50BE62B30300A128A118D2236
:1007DC000A128A1138300A128A118D220A128A11D1
:1007EC000C300A128A118D220A128A1101300A1257
:1007FC008A118D220A128A1106300A128A118D2250
:10080C000A128A110800F601F31F0D2C0E2C152C60
:10081C00F209F309F20A0319F30AF601F60AF11FB9
:10082C00182C192C1E2CF009F109F00A0319F10AE5
:10083C00700871040319232C242C532CF501F50A90
:10084C00322C01300310F00DF10DFF3E031D282C4E
:10085C000130F4007408F507F11F352C362C272CC9
:10086C0071087302031D3C2C70087202031C3F2C90
:10087C00402C462C7008F2027108031CF303F3029F
:10088C0001300310F10CF00CFF3E031D472C01301E
:10089C00F502031D522C532C362C76080319572CB9
:1008AC00582C5D2CF209F309F20A0319F30A7308A8
:1008BC00F1007208F00008000030FC000030FB0072
:1008CC000030FA000030F9007308720471047004EF
:1008DC000319712C722CBF2CFD01FD0A822C0130E6
:1008EC00F8000310F00DF10DF20DF30DF80B772C51
:1008FC000130F8007808FD07F31F852C862C752C29
:10090C000130F8000310F90DFA0DFB0DFC0DF80B7E
:10091C00882C73087702031D9D2C72087602031D28
:10092C009D2C71087502031D9D2C70087402031C0C
:10093C00A02CA12CB02C7008F4027108031C710FB0
:10094C00F5027208031C720FF6027308031C730F76
:10095C00F702791401300310F30CF20CF10CF00CCB
:10096C00FF3E031DB12C0130FD02031DBE2CBF2C1C
:10097C00862C7C08F3007B08F2007A08F1007908D9
:10098C00F0000800F601F11FCC2CCD2CD42CF00972
:10099C00F109F00A0319F10AF601F60AF31FD72C34
:1009AC00D82CE12CF209F309F20A0319F30A0130ED
:1009BC00F4007408F606F701F801700871040319C5
:1009CC00E82CE92C202DF501F50AF72C0130031049
:1009DC00F00DF10DFF3E031DED2C0130F4007408F9
:1009EC00F507F11FFA2CFB2CEC2C01300310F70D42
:1009FC00F80DFF3E031DFC2C71087302031D082D1E
:100A0C0070087202031C0B2D0C2D132D7008F202B2
:100A1C007108031CF303F302771401300310F10C7B
:100A2C00F00CFF3E031D142D0130F502031D1F2D8C
:100A3C00202DFB2C76080319242D252D2A2DF709A2
:100A4C00F809F70A0319F80A7808F1007708F0009A
:100A5C000800831203134A080A128A1175220A121B
:100A6C008A11F900FA01790883120313CA007A0873
:100A7C00CB0048080A128A1175220A128A11F90051
:100A8C00FA01790883120313C8007A08C9004608D2
:100A9C000A128A1175220A128A11F900FA017908D0
:100AAC0083120313C6007A08C70044080A128A117D
:100ABC0075220A128A11F900FA01790883120313BC
:100ACC00C4007A08C50042080A128A1175220A125B
:100ADC008A11F900FA01790883120313C2007A080B
:100AEC00C30040080A128A1175220A128A11F900F1
:100AFC00FA01790883120313C0007A08C1000A3086
:100B0C00F0000030F1004708F3004608F2000A122A
:100B1C008A11C8240A128A117008303EF90079082B
:100B2C0083120313B7000A30F0000030F1004708BD
:100B3C00F3004608F2000A128A1109240A128A11DB
:100B4C007008303EF900790883120313B8000A309C
:100B5C00F0000030F1004908F3004808F2000A12D6
:100B6C008A11C8240A128A117008303EF9007908DB
:100B7C0083120313BA000A30F0000030F100490868
:100B8C00F3004808F2000A128A1109240A128A1189
:100B9C007008303EF900790883120313BB000A3049
:100BAC00F0000030F1004B08F3004A08F2000A1282
:100BBC008A11C8240A128A117008303EF90079088B
:100BCC0083120313BD000A30F0000030F1004B0813
:100BDC00F3004A08F2000A128A1109240A128A1137
:100BEC007008303EF900790883120313BE000A30F6
:100BFC00F0000030F1004508F3004408F2000A123E
:100C0C008A11C8240A128A117008303EF90079083A
:100C1C0083120313A6000A30F0000030F1004508DF
:100C2C00F3004408F2000A128A1109240A128A11EC
:100C3C007008303EF900790883120313A7000A30BC
:100C4C00F0000030F1004308F3004208F2000A12F1
:100C5C008A11C8240A128A117008303EF9007908EA
:100C6C0083120313A9000A30F0000030F10043088E
:100C7C00F3004208F2000A128A1109240A128A119E
:100C8C007008303EF900790883120313AA000A3069
:100C9C00F0000030F1004108F3004008F2000A12A5
:100CAC008A11C8240A128A117008303EF90079089A
:100CBC0083120313AE000A30F0000030F10041083B
:100CCC00F3004008F2000A128A1109240A128A1150
:100CDC007008303EF900790883120313AF00080046
:100CEC000A128A1158230A128A11831603138801D7
:100CFC000A128A11BE230A128A110A128A112A2296
:100D0C000A128A11F401F40A01300A128A1106231C
:100D1C000A128A1131300A128A11E5220A128A113A
:100D2C00F401F40A02300A128A1106230A128A11FB
:100D3C0020300A128A11E5220A128A110A128A112B
:100D4C00F5210A128A11D030F0000030F1000A129D
:100D5C008A1107220A128A110030F000F1000A12DF
:100D6C008A1107220A128A110030F000F1000A12CF
:100D7C008A1107220A128A110030F000F1000A12BF
:100D8C008A1107220A128A110130F0000030F1009A
:100D9C000A128A1107220A128A110030F000F1009F
:100DAC000A128A1107220A128A110A30F000003046
:100DBC00F1000A128A1107220A128A110330F0007C
:100DCC000030F1000A128A1107220A128A111B3014
:100DDC00F0000030F1000A128A1107220A128A115F
:100DEC000A128A11FE210A128A110330831203138C
:100DFC00D7000830D6007630D500D50B032FD60B94
:100E0C00032FD70B032F00000A128A11F5210A12A7
:100E1C008A11D030F0000030F1000A128A1107223A
:100E2C000A128A110030F000F1000A128A1107220E
:100E3C000A128A110A128A11EC210A128A11D13073
:100E4C00F0000030F1000A128A1107220A128A11EE
:100E5C000130F0000030F1000A128A112A230A1224
:100E6C008A11710883120313CB007008CA00013079
:100E7C00F0000030F1000A128A112A230A128A119A
:100E8C00710883120313C9007008C8000130F00008
:100E9C000030F1000A128A112A230A128A117108F1
:100EAC0083120313C7007008C6000130F000003035
:100EBC00F1000A128A112A230A128A110130F00059
:100ECC000030F1000A128A112A230A128A117108C1
:100EDC0083120313C5007008C4000130F000003009
:100EEC00F1000A128A112A230A128A11710883123C
:100EFC000313C3007008C2000030F000F1000A12A6
:100F0C008A112A230A128A11710883120313C10051
:100F1C007008C0000A128A11FE210A128A110A12E4
:100F2C008A112F250A128A11033083120313D7005A
:100F3C000830D6007630D500D50BA22FD60BA22FB9
:100F4C00D70BA22F0000F401F40A01300A128A1107
:100F5C0006230A128A1131300A128A11E5220A126A
:100F6C008A11F401F40A02300A128A1106230A12B9
:100F7C008A1120300A128A11E5220A128A113130A4
:100F8C000A128A11A7220A128A1120300A128A1117
:100F9C00A7220A128A110D300A128A1111220A1282
:100FAC008A110A300A128A1111220A128A110A2F86
:100FBC000A128A11002883134030FD000230FE0013
:100FCC00C530FF00203084000A128A113B220A121D
:100FDC008A11C001C101C201C301C401C501C6010E
:100FEC00C701C801C901CA01CB01CC0183010A1296
:040FFC008A11762EB2
:04400E00D420FF3F7C
:00000001FF
