:020000040000FA
:060000000A128A110C280F
:10000800FE00030EF1000A08F2000A128A11832C7E
:100018000A128A110F28F801F901FA018313203016
:1000280084004C300A128A115D250A128A11830154
:100038000A128A11092983120313E4005630DC00DE
:100048005C08DF00F2282530650603192C282D28C6
:1000580039286508DC00640884005C088313800084
:100068000130DC005C08E407F228E0010130D50724
:10007800FF30550784000A128A11B3230A128A1125
:10008800E500DC00DD015D08003A03194C28F22880
:100098005C08003A03190429643A031957280D3AF1
:1000A80003195728F2285F08840083130008E20028
:1000B800840A0008E3000230DC005C08DF07E31F65
:1000C8006628672870280330DC005C08E004E20931
:1000D800E309E20A0319E30AE501E50A6508DC0019
:1000E8005C07013E84000A128A11B3230A128A119E
:1000F800DD000A128A11B3230A128A11DE005E0893
:100108006302031D89285D08620203188C288D2864
:100118008E2898280130DC005C08E5070530650664
:10012800031D9728982872286008033903199D2809
:100138009E28A9282D30DC00640884005C088313FD
:1001480080000130DC005C08E4076508DC005C081E
:10015800E100E9280A30CF000030D0006108DC0057
:100168005C07013E84000A128A11B3230A128A111D
:10017800F3000A128A11B3230A128A11F4006308E1
:10018800F6006208F5000A128A111D230A128A1164
:10019800740883120313D2007308D1000A128A115B
:1001A800EE230A128A11831203134F08303EDD0032
:1001B8005D08E5006508DC00640884005C088313BA
:1001C80080000130DC005C08E407FF30DC005C08DC
:1001D800E107610A031DF128F228AE280130D5078E
:1001E800FF30550784000A128A11B3230A128A11B4
:1001F800DC005C08E5006508031D0329042927289D
:10020800640884008313800108000A128A112A24D2
:100218000A128A118316031388010A128A11CD2241
:100228000A128A110A128A1144250A128A11F70140
:10023800F70A01300A128A11AC240A128A112A30EC
:10024800F6008030F7000A128A1163230A128A1115
:10025800073083120313E6006608F70001300A121C
:100268008A11AC240A128A112E30F6008030F70069
:100278000A128A1163230A128A110E308312031399
:10028800E6006608F70001300A128A11AC240A1247
:100298008A113230F6008030F7000A128A1163237F
:1002A8000A128A110A128A117A220A128A110A1269
:1002B8008A1126220A128A111B3083120313E600C0
:1002C8006608D5002508D7002408D6002308D900D9
:1002D8002208D8002708E700E8016708DA0068085C
:1002E800DB0028300A128A111F200A128A112830CE
:1002F8000A128A11F6240A128A110D300A128A117A
:1003080051250A128A110A300A128A1151250A1235
:100318008A110B3083120313E6006608D5002508FE
:10032800D7002408D6002308D9002208D8002708B7
:10033800E700E8016708DA006808DB003C300A12C9
:100348008A111F200A128A11F701F70A02300A12CD
:100358008A11AC240A128A113C30F6000030F700EA
:100368000A128A1163230A128A1156290A128A115B
:100378000C2883120313D301CF1FC329C429CB2907
:10038800CE09CF09CE0A0319CF0AD301D30AD11F48
:10039800CE29CF29D829D009D109D00A0319D10AE1
:1003A8000130F7007708D306D401D5014E084F0471
:1003B8000319DF29E029172AD201D20AEE290130D0
:1003C8000310CE0DCF0DFF3E031DE4290130F700C9
:1003D8007708D207CF1FF129F229E329013003104A
:1003E800D40DD50DFF3E031DF3294F085102031DFF
:1003F800FF294E085002031C022A032A0A2A4E0823
:10040800D0024F08031CD103D10254140130031049
:10041800CF0CCE0CFF3E031D0B2A0130D202031D68
:10042800162A172AF229530803191B2A1C2A212ADB
:10043800D409D509D40A0319D50A5508CF00540898
:10044800CE0008000130F3000030F4000A128A11CF
:10045800D2240A128A11831203131F179F131F1421
:10046800193083120313D600D60B382A3B2A83127D
:1004780003139F14752A1E08D6005608F300831626
:1004880003131E080A128A1165250A128A1183129B
:100498000313D7005708F900FF30CE000030CF0013
:1004A8007908D600D7015608F3005708F40032300F
:1004B800F5000030F6000A128A1158240A128A112F
:1004C800740883120313D1007308D0000A128A112A
:1004D800BD210A128A11831203134F08A3004E0884
:1004E800A2009F18782A792A3F2A08000030F300D2
:1004F800F4000A128A11D2240A128A1183120313F1
:100508001F179F131F14193083120313D600D60B1D
:100518008B2A8E2A831203139F14C82A1E08D6001A
:100528005608F300831603131E080A128A1165255C
:100538000A128A1183120313D7005708FA00FF30F2
:10054800CE000030CF007A08D600D7015608F30055
:100558005708F4003230F5000030F6000A128A110C
:1005680058240A128A11740883120313D1007308DD
:10057800D0000A128A11BD210A128A1183120313AC
:100588004F08A5004E08A4009F18CB2ACC2A922A0F
:10059800080000300A128A116D250A128A113430B7
:1005A80083120313CD00F130CC00CC0BD92ACD0B2C
:1005B800D92A30300A128A1114250A128A110D30EC
:1005C80083120313CD00FB30CC00CC0BE92ACD0BF2
:1005D800E92A30300A128A1114250A128A111D30AC
:1005E80083120313CD009030CC00CC0BF92ACD0B2D
:1005F800F92A000030300A128A1114250A128A11C9
:1006080038300A128A1114250A128A110C300A127B
:100618008A1114250A128A1101300A128A11142526
:100628000A128A1106300A128A1114250A128A112E
:10063800080083120313CD01CE0173087404031953
:10064800262B272B5E2BCC01CC0A352B013003102F
:10065800F30DF40DFF3E031D2B2B0130F700770837
:10066800CC07F41F382B392B2A2B01300310CD0D62
:10067800CE0DFF3E031D3A2B74087602031D462B50
:1006880073087502031C492B4A2B512B7308F5027A
:100698007408031CF603F6024D1401300310F40C21
:1006A800F30CFF3E031D522B0130CC02031D5D2BC2
:1006B8005E2B392B4E08F4004D08F3000800831216
:1006C8000313CF01D0018C2B4F087607CD00770894
:1006D800CC000318CC0ACF1F722BCC038312031350
:1006E8004C08CE004E08FF004D0884000A128A11FB
:1006F800A9230A128A110A128A112E250A128A11AE
:10070800013083120313CF070318D00A0030D00733
:100718004F087607CD007708CC000318CC0ACF1F06
:10072800962BCC03831203134C08CE004E08FF000F
:100738004D0884000A128A11A9230A128A11003A64
:10074800031DA72BA82B682B0800FF1BB32B8313B3
:100758007F1883170008840A0319FF0A080003306A
:100768008A000408840A82070034013400340A34F9
:10077800003464340034E834033410342734253426
:1007880064345634203420342034253464345634C8
:100798002034203420342034253464340034253483
:1007A80064345634203420342034253464345634A8
:1007B8002034203420342534643400345334313424
:1007C8003A340034533432343A3400345334333402
:1007D8003A340034831203134F0850040319F52BDD
:1007E800F62B252CD401D40A042C01300310CF0D8C
:1007F800D00DFF3E031DFA2B0130D3005308D40758
:10080800D01F072C082CF92B50085202031D0E2C60
:100818004F085102031C112C122C182C4F08D1021E
:100828005008031CD203D20201300310D00CCF0CA5
:10083800FF3E031D192C0130D402031D242C252C46
:10084800082C5208D0005108CF0008000330831646
:100858000317880089010330831603138500860176
:1008680087018801890183120313850186018701A5
:10087800880189018316031387179F010C138312BC
:1008880003130C138316031381018B010B178C16AA
:100898008B179A010C3099009816181283120313BB
:1008A800981718169A01080083120313CC01CD017A
:1008B800731C5F2C602C682C750883120313CC07FB
:1008C8000318CD0A7608CD0701300310F50DF60D93
:1008D800FF3E031D692C01300310F40CF30CFF3E9E
:1008E800031D702C73087404031D7B2C7C2C5C2C5A
:1008F800831203134D08F4004C08F3000800831218
:1009080003138C1E882C892CA52C1A08F00070085B
:10091800F8002B307806031D922C932C992C27086D
:10092800013EF0007008A700A42C2D307806031DA6
:100938009E2C9F2CA42C2708FF3EF0007008A700CF
:10094800F80172088A00710E8300FE0E7E0E0900FF
:1009580083120313CD004D03031DB32CB42CC02CFC
:1009680077087F3ECC004C08CE004E080A128A1148
:1009780014250A128A11D12C02304D06031DC52CEC
:10098800C62CD12C7708BF3ECC004C08CE004E08B0
:100998000A128A1114250A128A110800E82C8312F7
:1009A80003139F121F129F111F11F52C831203139B
:1009B8009F121F129F111F15F52C831203139F12EC
:1009C8001F129F111F11F52C7408003A0319ED2C02
:1009D800E12C7308003A0319D32C013A0319DA2CD5
:1009E800E12C0800F500F601082D76087507F400DB
:1009F8007408840000080A128A1151250A128A1103
:100A08000130F4007408F60776087507F4007408D6
:100A1800840083130008031D122D132DF92C0800E0
:100A2800F60083120313091076080A128A116D253D
:100A38000A128A118312031389140B30F5006230ED
:100A4800F400F40B252DF50B252D0000831203135C
:100A580089100800F50083120313091475080A1297
:100A68008A116D250A128A118312031389141A3008
:100A7800F400F40B3D2D00008312031389100800C5
:100A880000300A128A1114250A128A1101300A123A
:100A98008A1114250A128A110800F3008316031319
:100AA800981C572D582D522D730883120313990043
:100AB800080064008001840A04060319003404064F
:100AC8005E2D831203131E08F4007408A60026087E
:0E0AD8000800F300730883120313880008005F
:04400E00D223FF3F7B
:00000001FF
