:020000040000FA
:060000000A128A11F82F1C
:100EDC00831203131E08F5007508F200720808004F
:100EEC000A128A1188270A128A110A128A11CC272F
:100EFC000A128A1173088312031388007B2F0A12BB
:100F0C008A110028013083160317880089010130EB
:100F1C0083160313850086018701880189018312DA
:100F2C000313850186018701880189018316031348
:100F3C009F010C13831203130C13831603138101EB
:100F4C008B010800BE2F831203139F121F129F11D7
:100F5C001F11CB2F831203139F121F129F111F15EA
:100F6C00CB2F831203139F121F129F111F11CB2F14
:100F7C007508003A0319C32FB72F7408003A0319E8
:100F8C00A92F013A0319B02FB72F08000030F40035
:100F9C00F5000A128A11A8270A128A118312031368
:100FAC001F179F131F141A30F600F60BDB2F0000CF
:100FBC00831203139F14F12F1E08F6007608F40019
:100FCC00831603131E080A128A116E270A128A113D
:100FDC00F7007708F300831203139F18F62FF72FEF
:100FEC00E22F0800F001F101F201F30183010A1272
:040FFC008A11762FB1
:04400E00D223FF3F7B
:00000001FF
