:020000040000FA
:060000000A128A110C280F
:10000800FE00030EF1000A08F2000A128A11FD2808
:100018000A128A110F28F901FA018313203084008B
:1000280044300A128A111F220A128A1183010A1205
:100038008A111E280A128A11CF200A128A118316E1
:10004800031388010A128A1184200A128A110A12DB
:100058008A1106220A128A11F701F70A01300A12D8
:100068008A114E210A128A110E300A128A1174213D
:100078000A128A11073083120313C6004608F700D4
:1000880001300A128A114E210A128A1112300A12FC
:100098008A1174210A128A110E3083120313C600C2
:1000A8004608F70001300A128A114E210A128A11F5
:1000B80016300A128A1174210A128A110130831229
:1000C8000313C6004608F30030300A128A112621AD
:1000D8000A128A1130300A128A11B8210A128A11BA
:1000E8000D300A128A1113220A128A110A300A12D2
:1000F8008A1113220A128A1162280A128A110C28FC
:1001080000300A128A1127220A128A113430F800A4
:10011800F130F700F70B8E28F80B8E289328303033
:100128000A128A11D6210A128A110D30F800FB3002
:10013800F700F70B9D28F80B9D28A22830300A12EB
:100148008A11D6210A128A111D30F8009130F70061
:10015800F70BAC28F80BAC2830300A128A11D621DC
:100168000A128A1138300A128A11D6210A128A1103
:100178000C300A128A11D6210A128A1101300A1289
:100188008A11D6210A128A1106300A128A11D6213A
:100198000A128A11080003308316031788008901A0
:1001A80003308316031385008601870188018901BE
:1001B800831203138501860187018801890183164B
:1001C800031387179F010C13831203130C13831651
:1001D800031381018B010B178C168B179A010C30B6
:1001E80099009816181283120313981718169A0173
:1001F8000800831203138C1E022903291F291A08D9
:10020800F0007008F9002B307906031D0C290D2920
:1002180013297A08013EF0007008FA001E292D30D3
:100228007906031D182919291E297A08FF3EF000AE
:100238007008FA00F90172088A00710E8300FE0E38
:100248007E0E0900F7007430F4007408F5003729B1
:100258007608F4007708840074088313800001305E
:10026800F4007408F7070130F307FF3073078400C0
:100278000A128A1199210A128A11F4007408F600E8
:100288007608031D482949292C29770884008313F7
:100298008001080083120313C4004403031D552979
:1002A8005629622977087F3EF8007808C500450876
:1002B8000A128A11D6210A128A11732902304406B9
:1002C800031D6729682973297708BF3EF800780855
:1002D800C50045080A128A11D6210A128A11080097
:1002E800F800F601F7018B297608780784000A12CE
:1002F8008A1199210A128A110A128A11F0210A1206
:100308008A110130F6070318F70A0030F707760854
:10031800780784000A128A1199210A128A11003A70
:10032800031D972998297829080001308A000408B4
:10033800840A820700345334313420342034203482
:10034800533432342034203420345334333400349A
:10035800533431343A340034533432343A34003478
:10036800533433343A340034F600F501CA29750899
:100378007607F4007408840000080A128A11132210
:100388000A128A110130F4007408F5077508760717
:10039800F4007408840083130008031DD429D529A8
:1003A800BB290800F60083120313091076080A1205
:1003B8008A1127220A128A118312031389140B3017
:1003C800F5006230F400F40BE729F50BE72900008B
:1003D8008312031389100800F5008312031309140C
:1003E80075080A128A1127220A128A118312031326
:1003F80089141A30F400F40BFF2900008312031348
:100408008910080000300A128A11D6210A128A11AE
:1004180001300A128A11D6210A128A110800F30043
:1004280083160313981C192A1A2A142A730883128C
:1004380003139900080064008001840A0406031964
:1004480000340406202AF30073088312031388007B
:0204580008009A
:04400E00D223FF3F7B
:00000001FF
