:020000040000FA
:060000000A128A110C280F
:10000800FE00030EF1000A08F2000A128A11AD2858
:100018000A128A110F28F701F801F901FA01830180
:100028000A128A11C3280130831603178800890130
:100038000130831603138500860188018901831224
:1000480003138501860188018901831603139F0123
:100058000C13831203130C138316031381018B01F2
:100068008B170B17831203138C11831603138C152C
:100078008516F301F401F50124300A128A1197203C
:100088000A128A1108000030F300F4000A128A11DB
:1000980073200A128A11831203131F179F131F1448
:1000A8001A30F500F50B56280000831203139F142D
:1000B8006C281E08F5007508F300831603131E0844
:1000C8000A128A11D5200A128A11F6007608FA0057
:1000D800831203139F18712872285D280800892845
:1000E800831203139F121F129F111F119628831248
:1000F80003139F121F129F111F15962883120313B3
:100108009F121F129F111F1196287408003A031995
:100118008E2882287308003A03197428013A0319B3
:100128007B2882280800F600831603138712761DA1
:100138009E289F28A328750894008715A728730868
:1001480075049400871176087404831203139400CD
:100158000800831203138C1DB228B328BC287A0820
:100168000A128A11DD200A128A11831203138C11D4
:1001780072088A00710E8300FE0E7E0E09000A12B4
:100188008A1117200A128A110A128A1147200A12A4
:100198008A117A08831203138800C8280A128A1160
:1001A8000C28831203131E08F4007408F900790858
:0E01B8000800F0007008831203139300080083
:04400E00D223FF3F7B
:00000001FF
