:020000040000FA
:060000000A128A110C280F
:10000800FE00030EF1000A08F2000A128A118E2877
:100018000A128A110F28F701F80183010A128A11BE
:10002800492883160317880189018316031387015A
:1000380083120313870183160313880183120313A2
:100048008801831603138901831203138901831618
:1000580003138601831203138601033083160313E7
:1000680085008312031385018B170B178C118316D8
:1000780003138C158516F301F401F50124300A12D7
:100088008A1178200A128A1108000A128A1115208A
:100098000A128A1183120313051853285428622858
:1000A800051C5728582854287708013EF700780877
:1000B8000318013E003EF800770888008518652877
:1000C80066284E28851C69286A2866287708FF3E16
:1000D800F70078080318013EFF3EF800770888000B
:1000E8004E280A128A110C28F60083160313871269
:1000F800761D7F288028842875089400871588280D
:100108007308750494008711760874048312031326
:1001180094000800831203138C1D932894289D28AB
:1001280008080A128A11A4200A128A1183120313DA
:100138008C1172088A00710E8300FE0E7E0E090073
:0C014800F00070088312031393000800FD
:04400E00D223FF3F7B
:00000001FF
