:020000040000FA
:060000000A128A11FA2F1A
:100F4E008316031788018901831603138701831201
:100F5E000313870183160313880183120313880179
:100F6E008316031389018312031389010330831639
:100F7E000313860083120313860183160313850160
:100F8E0083120313850108000A128A11A7270A1279
:100F9E008A11831203130618D52FD62FE42F061CA1
:100FAE00D92FDA2FD62F7008013EF00071080318E2
:100FBE00013E003EF100700887008618E72FE82FEB
:100FCE00D02F861CEB2FEC2FE82F7008FF3EF00081
:100FDE0071080318013EFF3EF10070088700D02F04
:100FEE000A128A110028F001F10183010A128A11F6
:020FFE00CB2FF7
:04400E00D223FF3F7B
:00000001FF
