:020000040000FA
:060000000A128A11FA2F1A
:100F4E008316031788018901831603138701831201
:100F5E000313870183160313880183120313880179
:100F6E008316031389018312031389018316031356
:100F7E008601831203138601033083160313850043
:100F8E0083120313850108000A128A11A7270A1279
:100F9E008A11831203130518D52FD62FE42F051CA3
:100FAE00D92FDA2FD62F7008013EF00071080318E2
:100FBE00013E003EF100700888008518E72FE82FEB
:100FCE00D02F851CEB2FEC2FE82F7008FF3EF00082
:100FDE0071080318013EFF3EF10070088800D02F03
:100FEE000A128A110028F001F10183010A128A11F6
:020FFE00CB2FF7
:04400E00D223FF3F7B
:00000001FF
