:020000040000FA
:060000000A128A11F62F1E
:100CEA008316031788018901831603138701831268
:100CFA0003138701831603138801831203138801E0
:100D0A0083160313890183120313890183160313BC
:100D1A0086018312031386010730831603138500A5
:100D2A00831203138501080083120313091409307F
:100D3A00F8001E30F700E430F600F60BA22EF70B8F
:100D4A00A22EF80BA22E0000831203130910891495
:100D5A000930F8001E30F700E430F600F60BB32E27
:100D6A00F70BB32EF80BB32E00008312031389106E
:100D7A0009150930F8001E30F700E430F600F60BCA
:100D8A00C42EF70BC42EF80BC42E000083120313D3
:100D9A0009110130F0000030F100080074037504F5
:100DAA00031DD82ED92EDE2E01308312031387009D
:100DBA00322F023074067504031DE42EE52EEA2E46
:100DCA000230831203138700322F0330740675042E
:100DDA00031DF02EF12EF62E043083120313870022
:100DEA00322F043074067504031DFC2EFD2E022FCB
:100DFA000830831203138700322F053074067504F6
:100E0A00031D082F092F0E2F10308312031387009A
:100E1A00322F063074067504031D142F152F1A2F4E
:100E2A002030831203138700322F073074067504AB
:100E3A00031D202F212F262F4030831203138700F2
:100E4A00322F083074067504031D2C2F2D2F322FD4
:100E5A008030831203138700322F08007203730451
:100E6A00031D382F392F3E2F0130831203138800B8
:100E7A00922F023072067304031D442F452F4A2F06
:100E8A000230831203138800922F03307206730410
:100E9A00031D502F512F562F04308312031388003D
:100EAA00922F043072067304031D5C2F5D2F622F8C
:100EBA000830831203138800922F053072067304D8
:100ECA00031D682F692F6E2F1030831203138800B9
:100EDA00922F063072067304031D742F752F7A2F12
:100EEA002030831203138800922F0730720673048E
:100EFA00031D802F812F862F403083120313880011
:100F0A00922F083072067304031D8C2F8D2F922F97
:100F1A008030831203138800922F08000A128A1164
:100F2A0075260A128A118312031305189D2F9E2F04
:100F3A00A32F0A128A1199260A128A1170037104C0
:100F4A00031DA82FA92F982F831203138518AE2FDC
:100F5A00AF2FCD2F851CB22FB32FAF2F7408013EB0
:100F6A00F40075080318013E003EF5007508803A42
:100F7A00FF0080307F02031DC42F0A307402031859
:100F8A00C72FC82FCD2F0A128A11D3260A128A1107
:100F9A00831203130519D22FD32F982F051DD62F8D
:100FAA00D72FD32F7208013EF20073080318013EAF
:100FBA00003EF3007308803AFF0080307F02031D71
:100FCA00E82F0A3072020318EB2FEC2FF22F0A12C5
:100FDA008A1133270A128A11982F982F0A128A1116
:100FEA000028F001F101F201F301F401F501830196
:060FFA000A128A11932F78
:04400E00D120FF3F7F
:00000001FF
