:020000040000FA
:060000000A128A11F42F20
:100C7A00831203138701F201F3010614F601F70147
:100C8A00F401F5010800831203138801F201F3014C
:100C9A008614F601F701F401F5010800831603171B
:100CAA0088018901831603138701831203138701BD
:100CBA00831603138801831203138801831603130F
:100CCA008901831203138901831603138601831290
:100CDA000313860107308316031385008312031357
:100CEA00850108008312031309140930FA001E3023
:100CFA00F900E430F800F80B802EF90B802EFA0B7D
:100D0A00802E000083120313091089140930FA0097
:100D1A001E30F900E430F800F80B912EF90B912EF1
:100D2A00FA0B912E0000831203138910091509305A
:100D3A00FA001E30F900E430F800F80BA22EF90B85
:100D4A00A22EFA0BA22E00008312031309110130FE
:100D5A00F2000030F300080076037704031DB62E74
:100D6A00B72EBC2E0130831203138700102F0230D6
:100D7A0076067704031DC22EC32EC82E02308312B4
:100D8A0003138700102F033076067704031DCE2E37
:100D9A00CF2ED42E0430831203138700102F043071
:100DAA0076067704031DDA2EDB2EE02E0830831236
:100DBA0003138700102F053076067704031DE62EED
:100DCA00E72EEC2E1030831203138700102F063003
:100DDA0076067704031DF22EF32EF82E20308312A6
:100DEA0003138700102F073076067704031DFE2EA3
:100DFA00FF2E042F4030831203138700102F083070
:100E0A0076067704031D0A2F0B2F102F80308312CA
:100E1A0003138700102F080074037504031D162F8F
:100E2A00172F1C2F0130831203138800702F0230F2
:100E3A0074067504031D222F232F282F02308312D4
:100E4A0003138800702F033074067504031D2E2FB8
:100E5A002F2F342F0430831203138800702F04308D
:100E6A0074067504031D3A2F3B2F402F0830831256
:100E7A0003138800702F053074067504031D462F6E
:100E8A00472F4C2F1030831203138800702F06301F
:100E9A0074067504031D522F532F582F20308312C6
:100EAA0003138800702F073074067504031D5E2F24
:100EBA005F2F642F4030831203138800702F08308D
:100ECA0074067504031D6A2F6B2F702F80308312EE
:100EDA0003138800702F08000A128A1153260A1277
:100EEA008A118312031305187B2F7C2F962F061065
:100EFA008610F601F701F401F501F201F301870109
:100F0A008801892FF201F301051C8C2F8D2F872F61
:100F1A000130F0000030F1000A128A1177260A1215
:100F2A008A1172037304031D9B2F9C2F762F831241
:100F3A0003138518A12FA22FC62F851CA52FA62F14
:100F4A00A22F7608013EF60077080318013E003EFC
:100F5A00F7007708803AFF0080307F02031DB72F21
:100F6A00093076020318BA2FBB2FC12F0A128A1131
:100F7A00B1260A128A11C62F0A128A113D260A12AE
:100F8A008A11831203130519CB2FCC2F762F051D37
:100F9A00CF2FD02FCC2F7408013EF4007508031808
:100FAA00013E003EF5007508803AFF0080307F025E
:100FBA00031DE12F093074020318E42FE52FEB2FEC
:100FCA000A128A1111270A128A11762F0A128A1115
:100FDA0048260A128A11762F0A128A110028F0016D
:100FEA00F101F201F301F401F501F601F7018301C0
:060FFA000A128A11712F9A
:04400E00D120FF3F7F
:00000001FF
