:020000040000FA
:060000000A128A110C280F
:10000800FE00030EF1000A08F2000A128A1199286C
:100018000A128A110F28F701F801F901FA01830180
:100028000A128A11AF280130831603178800890144
:100038000130831603138500860188018312031398
:100048008501860188010030F300F4000A128A1144
:1000580049200A128A11831203131F179F131F14B2
:10006800F301F401F50124300A128A116D200A12F5
:100078008A118B170B17831203138C118316031322
:100088008C15851607309F0008005F28831203131C
:100098009F121F129F111F116C28831203139F12A6
:1000A8001F129F111F156C28831203139F121F1212
:1000B8009F111F116C287408003A031964285828E6
:1000C8007308003A03194A28013A03195128582895
:1000D8000800F600831603138712761D7428752806
:1000E80079287508940087157D287308750494008D
:1000F80087117608740483120313940008000630ED
:10010800F4003030F300F30B8728F40B8728000045
:10011800831203139F1494281E08F3007308FA002F
:100128009F189728982890280800831203138C1D7D
:100138009E289F28A8287A080A128A11BD200A1228
:100148008A11831203138C1172088A00710E8300BE
:10015800FE0E7E0E09000A128A1117200A128A1151
:100168000A128A1183200A128A11B4280A128A11E3
:0E0178000C28F0007008831203139300080097
:04400E00D620FF3F7A
:00000001FF
